:03000000020003F8
:0C000300787FE4F6D8FD75810902004A00
:1000E2001201D47F017E001201967B107D017F01F7
:1000F20012008F7D107F0112017D7F7D7E00120133
:10010200967D107F011201627F7D7E001201968032
:01011200E20A
:1001D40075A15575A1AA53B9F843B90475A1FF22B5
:0E01E400EF4E600905A1EF1F70F61E80F3229A
:10019600AD07AC06ED4C600E7FE87E031201E4ED80
:0701A6001D70F11C80EE2228
:0601F2000108FF0109FFF6
:02008F00A907BF
:10009100ED24FD600A24027047AC92AE938004AC5B
:1000A10096AE97E914601214601514601B24037056
:1000B1002FEBF4520452068015EBF45204800CEB42
:1000C1004204EBF452068006EB4204EB4206ED24B7
:1000D100FD6009240270098C928E93228C968E9772
:0100E10022FC
:1001AD00EF24FD60092402700B8D088D9022AF05A0
:0501BD008F098FB02244
:1001C200EF24FD600724027006AF9022AFB0227FB9
:0201D200002209
:10011300EF24FD601624027023EB6005E5084D8093
:1001230004EDF45508FFF5088F9022EB6005E5090F
:0D0133004D8004EDF45509FFF5098FB02251
:10014000EF24FD600F24027016E5905D60037F01CF
:10015000227F0022E5B05D60037F01227F00227FC5
:0201600000227B
:10017D00EF24FD600C2402700FE5084DF508F59095
:09018D0022E5094DF509F5B02247
:10016200EF24FD600D24027011EDF45508F508F539
:0B0172009022EDF45509F509F5B022CC
:10000F000200E2E493A3F8E493A34003F68001F225
:10001F0008DFF48029E493A3F85407240CC8C333F2
:10002F00C4540F4420C8834004F456800146F6DFC1
:10003F00E4800B01020408102040809001F2E47E5E
:10004F00019360BCA3FF543F30E509541FFEE493B6
:10005F00A360010ECF54C025E060A840B8E493A37D
:10006F00FAE493A3F8E493A3C8C582C8CAC583CAA8
:10007F00F0A3C8C582C8CAC583CADFE9DEE780BE60
:0101F8000006
:00000001FF
