:03000000020D1DD1
:0C0D1D00787FE4F6D8FD758109020D64B2
:081096004100A6FF4100A7FF85
:0210ED00A90751
:1010EF00ED24FD600A24027048AC92AE938004ACEC
:1010FF0096AE97E914601414601614601C240370E4
:10110F0030EBF4FF5CFCEE5FFE8014EBF45C800BC5
:10111F00EC4BFCEBF45EFE8006EC4BFCEE4BFEED75
:10112F0024FD6009240270098C928E93228C968E76
:01113F009718
:01114000228C
:10148900EF24FD600C240270119000A6EDF0F59098
:0B14990022AF059000A7EFF0F5B02295
:10156400EF24FD600724027006AF9022AFB0227F03
:02157400002253
:1012E000EF24FD601C2402702FEB9000A66006E046
:1012F0004DFFF08009E0FFEDF4FEEF5EFFF08F9010
:1013000022EB9000A76006E04DFFF08009E0FFEDC2
:09131000F4FEEF5EFFF08FB02245
:10140D00EF24FD600F24027016E5905D60037F01EF
:10141D00227F0022E5B05D60037F01227F00227FE5
:02142D0000229B
:1014A400EF24FD600D240270119000A6E04DF0F5CC
:0B14B40090229000A7E04DF0F5B02260
:10002E00EF24FD60122402701B9000A6E0FFEDF499
:10003E00FEEF5EF0F590229000A7E0FFEDF4FEEFEC
:05004E005EF0F5B02298
:10109E0043004E0000004300510000004300540086
:0210AE00000040
:03000B00020EB131
:100EB100C0E0C0F0C083C082C0D075D000C000C007
:100EC10001C002C003C004C005C006C00790004AAB
:100ED100E0FEA3E0F58AEEF58C900045E004F070A9
:100EE10006900044E004F090004EE0FBA3E0FAA37A
:100EF100E0F9EA494B60031201FBD007D006D005A7
:100F0100D004D003D002D001D000D0D0D082D08381
:050F1100D0F0D0E03239
:03001B00020F16BB
:100F1600C0E0C0F0C083C082C0D075D000C000C0A1
:100F260001C002C003C004C005C006C00790004C43
:100F3600E0F58BA3E0F58D900047E004F070069095
:100F46000046E004F0900051E0FBA3E0FAA3E0F9CC
:100F5600EA494B60031201FBD007D006D005D00446
:100F6600D003D002D001D000D0D0D082D083D0F030
:030F7600D0E03296
:03002B0002103B85
:10103B00C0E0C0F0C083C082C0D075D000C000C07B
:10104B0001C002C003C004C005C006C00790004920
:10105B00E004F07006900048E004F0900054E0FBD0
:10106B00A3E0FAA3E0F9EA494B60031201FBC2CFFC
:10107B00D007D006D005D004D003D002D001D000C9
:0B108B00D0D0D082D083D0F0D0E03273
:100C8C0090005BEBF0A3EAF0A3E9F0EF14603114F1
:100C9C0060582402707AC28C5389F043890143C98D
:100CAC0090E4900044F0A3F090005BE0F9A3E0FA2C
:100CBC00A3E090004EC9F0A3EAF0A3E9F0D2A92278
:100CCC00C28E53890F43891043C9A0E4900046F0AB
:100CDC00A3F090005BE0F9A3E0FAA3E0900051C907
:100CEC00F0A3EAF0A3E9F0D2AB22E4F5C853C9F0C3
:100CFC0043C9C0900048F0A3F090005BE0F9A3E07A
:100D0C00FAA3E0900054C9F0A3EAF0A3E9F0D2AD45
:010D1C0022B4
:10114100EDF4FDECF4FCED2401FDE43CFCEF146056
:101151001A14602A2402703990004AECF0A3EDF0D1
:10116100F58AECF58CE4900044802390004CECF07F
:10117100A3EDF0F58BECF58DE490004680108CCB5F
:101181008DCAAE04AF058ECD8FCCE4900048F0A39C
:01119100F06D
:01119200223A
:1013E400EF1460111460182402701DED6003D380A3
:1013F40001C392A922ED6003D38001C392AB22ED15
:091404006003D38001C392AD2204
:10153C00EF14600A14600A24027008D28C22D28E36
:04154C0022D2CA22BB
:10155000EF14600A14600A24027008C28C22C28E42
:0415600022C2CA22B7
:10119300EF14601414602A24027035AF8CEFFCAF97
:1011A3008AEFFD90004A800BAF8DEFFCAF8BEFFD14
:1011B30090004CE0FEA3E0FFC3ED9FFDEC9EFC809E
:1011C30013ACCDADCCC3ED95CAFDEC95CBFC80043F
:0811D300E4FEFF22AF05AE04AB
:0111DB0022F1
:1011DC00EDF4FDECF4FCED2401FDE43CFCEF1460BB
:1011EC00161460222402702F8D8AECF58CC28DD2DD
:1011FC008C308DFDC28C228D8BECF58DC28FD28EF6
:10120C00308FFDC28E22AE04AF058ECD8FCCC2CFF7
:07121C00D2CA30CFFDC2CAA7
:0112230022A8
:10138800AE07EE25E02444F582E43400F583E4F06A
:10139800A3F012153CEE25E02444F582E43400F570
:1013A80083E0FAA3E0C39DEA9C40EAAF0602155029
:03002300020F7950
:100F7900C0E0C0F0C083C082C0D075D000C000C03E
:100F890001C002C003C004C005C006C007309809EB
:100F9900C298AD997F0012095930991AC299E4FF94
:100FA900121588EF4E60097F001208A08F998006FC
:100FB9009000A87401F0D007D006D005D004D00362
:100FC900D002D001D000D0D0D082D083D0F0D0E0F0
:010FD90032E5
:03005300020FDABF
:100FDA00C0E0C0F0C083C082C0D075D000C000C0DD
:100FEA0001C002C003C004C005C006C00730C00962
:100FFA00C2C0ADC17F0112095930C11AC2C17F01F5
:10100A00121588EF4E60097F011208A08FC1800671
:10101A009000A97401F0D007D006D005D004D003FF
:10102A00D002D001D000D0D0D082D083D0F0D0E08E
:01103A003283
:100BF50090005CE0F8A3E0F9A3E0FAA3E0FBE84984
:100C05004A4B7005C29CC2AC22EF24FE603B0470C7
:100C1500759000A87401F043878053890F4389209C
:100C2500C2CCC2CD43C9A0D28E90005CE0F8A3E04F
:100C3500F9A3E0FAA3E0FB7FB07E717D0B7C001287
:100C45000138EFF404F58D802F9000A87401F0753C
:100C5500C83443C9C090005CE0F8A3E0F9A3E0FA0A
:100C6500A3E0FB7FB07E717D0B7C00120138C3E4ED
:100C75009FFFE49EF5CB8FCA759850D2AC53C6EF53
:070C8500900060E042C6226E
:10131900EC4D4E4F7005C2C4C2EC229000A9740175
:10132900F075C030AB07AA06A905A8047FB07E7185
:101339007D0B7C00120138EFF404F5C2D2EC53C6E0
:08134900DF9000A5E042C6227E
:03000E0002157662
:0300110002126C6C
:0513B80090005BEFF066
:1013BD0090005BE0FF1214F3EF70F590005BE0FF1F
:1013CD006004C2EC8002C2AC120E3390005BE06090
:0613DD0003D2EC22D2ACA9
:0113E30022E7
:0E0AB800900062EFF0A3EBF0A3EAF0A3E9F0E8
:100AC600A3E0FFA3E0A3CFF0A3EFF0E4A3F0A3F02D
:100AD600900068E07002A3E0607B900062E0FF1285
:100AE600157690006AEEF0A3EFF0900068E0FCA3A4
:100AF600E0FDC39FEC9E5006A3ECF0A3EDF0900042
:100B060062E0FF6004C2EC8002C2AC900063E0FBCE
:100B1600A3E0FAA3E0F990006AE0FDA3E090008D5F
:100B2600CDF0A3EDF0120323900062E06004D2EC56
:100B36008002D2AC90006AE0FEA3E0FFC390006999
:100B4600E09FF0900068E09EF0900064EE8FF01257
:050B560000D0020AD6E8
:010B5B002277
:100B5C0090006CEFF0A3EDF0A3EBF0A3EAF0A3E9A7
:010B6C00F098
:100B6D00A3E0FFA3E0A3CFF0A3EFF0900073E0703C
:100B7D0002A3E0605D90006CE0FF1214F3EF70EBE8
:100B8D0090006CE0FF6004C2EC8002C2AC120E3328
:100B9D00900075EFF090006CE06004D2EC8002D212
:100BAD00AC90006DE0FF900075E0FE6F602490004A
:100BBD0074E024FFF0900073E034FFF090006EE0DD
:100BCD00FBA3E475F0011200E6A9F0FAEE12009C09
:100BDD008099900073E0FEA3E0FFC3900072E09F48
:070BED00FF900071E09EFE85
:010BF40022DE
:0E0A0C00900080EFF0A3EBF0A3EAF0A3E9F076
:100A1A00E4900086F0A3F0900085E024FFF09000B7
:100A2A0084E034FFF0900084E0FEA3E0FFC390006E
:100A3A0087E09F900086E09E5059900080E0FF1268
:100A4A0014F3EF70F5900080E0FF6004C2EC8002BE
:100A5A00C2AC120E33900088EFF0900080E0600480
:100A6A00D2EC8002D2AC900088E0FF900081E0FBDB
:100A7A00A3E0FAA3E0F9900086E475F0011200E61B
:100A8A0085F082F583EF1200AEEF640D6005EF6426
:100A9A000A7092900081E0FBA3E0FAA3E0F99000CB
:0E0AAA0086E0FEA3E0FFF5828E83E40200AE3C
:030014000214D9FA
:101224009000AAEFF0E0FF24A8F582E43400F583EF
:10123400E06019EF60048DC180028D999000AAE0EE
:1012440024A8F582E43400F583E4F0229000AAE0B7
:10125400FF6004C2EC8002C2AC120DA99000AAE0A7
:081264006003D2EC22D2AC229F
:0E07E40090005BEFF0A3EBF0A3EAF0A3E9F0C6
:1007F200E4A3F0A3F090005CE0FBA3E0FAA3E0F92D
:10080200120056700302089790005BE0FF24A8F5DF
:1008120082E43400F583E0603BEF90005C6012A359
:10082200E475F0011200E6A9F0FA120056F5C18053
:1008320012E0FBA3E475F0011200E6A9F0FA12003F
:1008420056F59990005BE024A8F582E43400F58324
:10085200E4F0803090005BE0FF6004C2EC8002C2F2
:10086200AC90005CE0FBA3E475F0011200E6A9F095
:10087200FA120056FD120DA990005BE06004D2EC62
:100882008002D2AC900060E004F0700690005FE05D
:0D08920004F00207F790005FE0FEA3E0FF16
:01089F002236
:0E022500900076EFF0A3EBF0A3EAF0A3E9F06F
:10023300A3E0FFA3E0A3CFF0A3EFF0E4A3F0A3F0C8
:10024300900076E0FF24A8F582E43400F583E060B3
:1002530049EF9000776014E0FBA3E475F00112000E
:10026300E6A9F0FA120056F5C18012E0FBA3E4758B
:10027300F0011200E6A9F0FA120056F59990007603
:10028300E024A8F582E43400F583E4F090007DE0F7
:1002930024FFF090007CE034FFF090007CE07002DB
:1002A300A3E0607B900076E0FF1214D990007EEE0D
:1002B300F0A3EFF090007CE0FCA3E0FDC39FEC9E75
:1002C3005006A3ECF0A3EDF0900076E0FF6004C2CB
:1002D300EC8002C2AC900077E0FBA3E0FAA3E0F964
:1002E30090007EE0FDA3E090009FCDF0A3EDF0121F
:1002F30006F9900076E06004D2EC8002D2AC900064
:100303007EE0FEA3E0FFC390007DE09FF090007CC1
:0F031300E09EF0900078EE8FF01200D002029D75
:0103220022B8
:1010B00046001001001C0100244400040000000050
:1010C0004400000000000044003C00000000460016
:1010D0001601002C01003444000C00000000440004
:0C10E00008000000004400400000000078
:10157600EF25E02404F582E43400F583E0FEA3E0E1
:02158600FF2242
:1014BF00EF25E02404F582E43400F583E0FEA3E099
:0A14CF00FFC374089FFFE49EFE2295
:1014F300EF25E02404F582E43400F583E0FEA3E065
:091503004E70037F01227F0022DB
:10142F00EF25E02404F582E43400F583E0FEA3E029
:0E143F00C39408EE940040037F01227F002238
:1009590090FFFF120201EDF090FFFF120201EFF08C
:10096900850883850982E0FF12142FEF60057F0057
:10097900020A06850883850982A3E0FF8508838525
:100989000982E0FE75F003A42410F582E43400F531
:1009990083E0FBA3E0FAA3E0F9EE25E0243CF5822D
:1009A900E43400F583E0FCA3E0F5828C83EF1200C8
:1009B900AEEE25E0243CF582E43400F583E475F0DD
:1009C900011200D0EE25E0243CF582E43400F583E1
:1009D900C083C082A3E05407FFD082D083E4F0A390
:1009E900EFF0850883850982E025E02404F582E497
:1009F9003400F583E475F0011200D07F0190000204
:030A0900020201E5
:020E3300AD0709
:100E35001214F3EF60037F0022ED75F003A4241074
:100E4500F582E43400F583E0FBA3E0FAA3E0F9EDD5
:100E550025E02400F582E43400F583E0FEA3E0F507
:100E6500828E8312006FFFED25E02400F582E434C5
:100E750000F583E475F0011200D0ED25E02400F5BE
:100E850082E43400F583C083C082A3E05407FBD01D
:100E950082D083E4F0A3EBF0ED25E02404F582E4B1
:0B0EA5003400F58374FFF5F01200D05C
:010EB000221F
:10126C00AD071214F3EF60037F0022ED75F003A4B9
:10127C002410F582E43400F583E0FBA3E0FAA3E04C
:10128C00F9ED25E02400F582E43400F583E0FEA3BB
:0A129C00E0F5828E8312006FFF223E
:1003230090008AEBF0A3EAF0A3E9F0900089EFF0E4
:1003330025E02404F582E43400F583E0FEA3E0FF26
:1003430090008DE0FCA3E0FDD39FEC9E40037F0073
:1003530022900089E025E02404F582E43400F5834B
:10036300C083C082C3A3E09DFF0582D582021583AB
:100373001582E09CD082D083F0A3EFF090008DE053
:100383007002A3E0700302041D900089E0FF75F082
:1003930003A42410F582E43400F583E0FBA3E0FA20
:1003A300A3E0F9EF25E02400F582E43400F583E0CF
:1003B300FEA3E0F5828E8312006FFF90008AE0FBBC
:1003C300A3E0FAA3E0F9EF12009C900089E0FF2577
:1003D300E02400F582E43400F583E475F0011200B3
:1003E300D0EF25E02400F582E43400F583C083C018
:1003F30082A3E05407FFD082D083E4F0A3EFF09010
:10040300008BE475F0011200D090008EE024FFF021
:0D04130090008DE034FFF002037F7F012296
:10060E00900090EBF0A3EAF0A3E9F090008FEFF0EA
:10061E0025E02404F582E43400F583E0FEA3E0FF38
:10062E00C374089FFFE49EFE900093E0FCA3E0FDE0
:10063E00D39FEC9E40037F002290008FE025E024A4
:10064E0004F582E43400F583EC8DF01200D09000B6
:10065E0093E07002A3E070030206F6900090E0FBB8
:10066E00A3E0FAA3E0F9120056FF90008FE0FE75AA
:10067E00F003A42410F582E43400F583E0FBA3E03C
:10068E00FAA3E0F9EE25E0243CF582E43400F5838C
:10069E00E0FCA3E0F5828C83EF1200AEEE25E024A1
:1006AE003CF582E43400F583E475F0011200D0EEDF
:1006BE0025E0243CF582E43400F583C083C082A398
:1006CE00E05407FFD082D083E4F0A3EFF0900091C6
:1006DE00E475F0011200D0900094E024FFF0900039
:0B06EE0093E034FFF002065C7F012265
:10158800EF25E0240CF582E43400F583E0FEA3E0C7
:02159800FF2230
:1014D900EF25E0240CF582E43400F583E0FEA3E077
:0A14E900FFC374089FFFE49EFE227B
:10150C00EF25E0240CF582E43400F583E0FEA3E043
:09151C004E70037F01227F0022C2
:10144D00EF25E0240CF582E43400F583E0FEA3E003
:0E145D00C39408EE940040037F01227F00221A
:100DA900900061EFF012144DEF60037F0022900074
:100DB90061E0FE75F003A42416F582E43400F5839E
:100DC900E0FBA3E0FAA3E0F9EE25E02440F582E494
:100DD9003400F583E0FCA3E0F5828C83ED1200AECC
:100DE900EE25E02440F582E43400F583E475F00152
:100DF9001200D0EE25E02440F582E43400F583C0EA
:100E090083C082A3E05407FFD082D083E4F0A3EF2C
:100E1900F0900061E025E0240CF582E43400F583CC
:0A0E2900E475F0011200D07F0122F1
:0E08A00090FFFF120201EFF090FFFF12020125
:1008AE00850883850982A3E0FF12150CEF60057F92
:1008BE0000020953850883850982A3E0FF75F003C2
:1008CE00A42416F582E43400F583E0FBA3E0FAA33A
:1008DE00E0F9EF25E02408F582E43400F583E0FE2C
:1008EE00A3E0F5828E8312006F850883850982F05E
:1008FE00A3E0FF25E02408F582E43400F583E475D7
:10090E00F0011200D0EF25E02408F582E43400F562
:10091E0083C083C082A3E05407FFD082D083E4F06B
:10092E00A3EFF0850883850982A3E025E0240CF56A
:10093E0082E43400F58374FFF5F01200D08508834D
:05094E00850982E0FFB5
:0609530090000202020107
:1012A600AD0712150CEF60037F0022ED75F003A465
:1012B6002416F582E43400F583E0FBA3E0FAA3E00C
:1012C600F9ED25E02408F582E43400F583E0FEA379
:0A12D600E0F5828E8312006FFF2204
:10042000900096EBF0A3EAF0A3E9F0900095EFF0CE
:1004300025E0240CF582E43400F583E0FEA3E0FF20
:10044000900099E0FCA3E0FDD39FEC9E40037F0069
:1004500022900095E025E0240CF582E43400F58339
:10046000C083C082C3A3E09DFF0582D582021583AD
:100470001582E09CD082D083F0A3EFF0900099E049
:100480007002A3E0700302051A900095E0FF75F07A
:1004900003A42416F582E43400F583E0FBA3E0FA1C
:1004A000A3E0F9EF25E02408F582E43400F583E0C9
:1004B000FEA3E0F5828E8312006FFF900096E0FBB2
:1004C000A3E0FAA3E0F9EF12009C900095E0FF256D
:1004D000E02408F582E43400F583E475F0011200AD
:1004E000D0EF25E02408F582E43400F583C083C012
:1004F00082A3E05407FFD082D083E4F0A3EFF09012
:100500000097E475F0011200D090009AE024FFF00B
:0D051000900099E034FFF002047C7F01228E
:1006F90090009CEBF0A3EAF0A3E9F090009BEFF0E7
:1007090025E0240CF582E43400F583E0FEA3E0FF44
:10071900C374089FFFE49EFE90009FE0FCA3E0FDE8
:10072900D39FEC9E40037F002290009BE025E024AC
:100739000CF582E43400F583EC8DF01200D09000C2
:100749009FE07002A3E070030207E190009CE0FBC8
:10075900A3E0FAA3E0F9120056FF90009BE0FE75B2
:10076900F003A42416F582E43400F583E0FBA3E04A
:10077900FAA3E0F9EE25E02440F582E43400F5839C
:10078900E0FCA3E0F5828C83EF1200AEEE25E024B5
:1007990040F582E43400F583E475F0011200D0EEEF
:1007A90025E02440F582E43400F583C083C082A3A8
:1007B900E05407FFD082D083E4F0A3EFF090009DCE
:1007C900E475F0011200D09000A0E024FFF0900041
:0B07D9009FE034FFF00207477F012281
:06000300426F6F62610014
:10051D00E490005AF012159A7B227D017F01121092
:10052D00ED7B127D037F011210ED7B017D03E4FF56
:10053D001210ED90005C1201CA0001E848E4900031
:10054D0060F07F01120BF5E490005EF0FBFD7F0380
:10055D001213517D7F7F031215AA7B007A0079005B
:10056D00E4FF120C8C7DE07C2EE4FF121141D2AF22
:10057D00C2AE7D027F0112002E7DFA7C00E4FF12D7
:10058D0013887D027F011214A47DFA7C00E4FF1212
:10059D0013887BFF7A007903E4FF1207E4E4FF126E
:1005AD00000ED3EF9402EE940040F2E4FF1213B864
:1005BD00900057EFF0E4FF1213B8900058EFF0E4FD
:1005CD00FF1213B8900059EFF0900057E0FBE49044
:1005DD00005EF0FD7F03121351900058E0FD7F0186
:1005ED001215AA900059E0FD7F021215AA90005A2B
:1005FD00E004F0E0F45401FB7D027F011212E08073
:01060D009C50
:10159A0075A15575A1AA53B9F843B90475A1FF22DB
:0E15B900EF4E600905A1EF1F70F61E80F322B1
:10152500AD07AC06ED4C600E7FE87E031215B9EDF4
:071535001D70F11C80EE2285
:10135100EF30E015539D49ED6003439D2053C6FBDB
:1013610090005EE042C6439D04EF30E115539D2598
:10137100ED6003439D4053C6F790005EE042C643D3
:071381009D08AF038F9E22BF
:10146B00EF30E00BED6005439D048003539DFBEFD4
:0E147B0030E10AED6004439D0822539DF722E4
:0F15AA00EF30E0028D9CEF30E104AF058F9B2204
:100D290002051DE493A3F8E493A34003F68001F2BE
:100D390008DFF48029E493A3F85407240CC8C333CB
:100D4900C4540F4420C8834004F456800146F6DF9A
:100D5900E4800B0102040810204080901096E47E84
:100D6900019360BCA3FF543F30E509541FFEE4938F
:100D7900A360010ECF54C025E060A840B8E493A356
:100D8900FAE493A3F8E493A3C8C582C8CAC583CA81
:100D9900F0A3C8C582C8CAC583CADFE9DEE780BE39
:0110EC000003
:10005600BB010689828A83E0225002E722BBFE02A8
:09006600E32289828A83E49322DB
:10006F00BB010CE58229F582E5833AF583E0225046
:10007F0006E92582F8E622BBFE06E92582F8E22290
:0D008F00E58229F582E5833AF583E49322AA
:10009C00BB010689828A83F0225002F722BBFE0143
:0200AC00F3223D
:1000AE00F8BB010DE58229F582E5833AF583E8F088
:1000BE00225006E92582C8F622BBFE05E92582C834
:0200CE00F2221C
:1000D000C5F0F8A3E028F0C5F0F8E58215827002BB
:0600E0001583E038F02258
:1000E600A3F8E0C5F025F0F0E582158270021583CD
:0600F600E0C838F0E8222A
:1000FC0075F008758200EF2FFFEE33FECD33CDCCBB
:10010C0033CCC58233C5829BED9AEC99E58298403D
:10011C000CF582EE9BFEED9AFDEC99FC0FD5F0D61A
:10012C00E4CEFBE4CDFAE4CCF9A88222B800C1B944
:10013C000059BA002DEC8BF084CFCECDFCE5F0CB82
:10014C00F97818EF2FFFEE33FEED33FDEC33FCEBBB
:10015C0033FB10D703994004EB99FB0FD8E5E4F976
:10016C00FA227818EF2FFFEE33FEED33FDEC33FC63
:10017C00C933C910D7059BE99A4007EC9BFCE99A57
:10018C00F90FD8E0E4C9FAE4CCFB2275F010EF2F9C
:10019C00FFEE33FEED33FDCC33CCC833C810D7079C
:1001AC009BEC9AE899400AED9BFDEC9AFCE899F8D7
:0E01BC000FD5F0DAE4CDFBE4CCFAE4C8F9226A
:1001CA00A8828583F0D083D0821201E11201E11264
:1001DA0001E11201E1E473E493A3C583C5F0C58389
:1001EA00C8C582C8F0A3C583C5F0C583C8C582C87F
:0101FA0022E2
:0601FB008A838982E4738F
:10020100E5092582F582E5083583F583B50804857E
:1002110082092210AF06858209F50822858209F537
:0402210008D2AF222E
:00000001FF
