:0300000002115595
:0C115500787FE4F6D8FD75810902119C3A
:08136900410108FF410109FFE9
:0212CD00A9076F
:1012CF00ED24FD600A24027048AC92AE938004AC0A
:1012DF0096AE97E914601414601614601C24037002
:1012EF0030EBF4FF5CFCEE5FFE8014EBF45C800BE4
:1012FF00EC4BFCEBF45EFE8006EC4BFCEE4BFEED94
:10130F0024FD6009240270098C928E93228C968E94
:01131F009736
:0113200022AA
:1013AE00EF24FD601C2402702FEB9001086006E014
:1013BE004DFFF08009E0FFEDF4FEEF5EFFF08F9041
:1013CE0022EB9001096006E04DFFF08009E0FFED91
:0913DE00F4FEEF5EFFF08FB02277
:10147400EF24FD600F24027016E5905D60037F0188
:10148400227F0022E5B05D60037F01227F00227F7E
:02149400002234
:10000300EF24FD600D24027011900108E04DF0F51E
:0B0013009022900109E04DF0F5B022B2
:10144F00EF24FD60122402701B900108E0FFEDF401
:10145F00FEEF5EF0F59022900109E0FFEDF4FEEF54
:05146F005EF0F5B02263
:0614F700426F6F6261000C
:10102700E49000FFF0A3F01214D97B107D017F013B
:101037001212CD7B027D037F011212CD7B017D034E
:10104700E4FF1212CD9001021209D60001E848E42C
:10105700900106F07F011210BED2AFC2AE7D107FA5
:101067000112144F7FFA7E001214B07D107F011217
:1010770000037FFA7E001214B07BFF7A1479F7E43D
:10108700FF120CBF9000FFE004F0E05480FB7D10DE
:101097007F011213AEE4FF1214C7EF4E6010E4FF96
:1010A7001213E7900100EFF0FDE4FF1213217FE830
:0710B7007E031214E980CD55
:1014D90075A15575A1AA53B9F843B90475A1FF229D
:0E14E900EF4E600905A1EF1F70F61E80F32282
:1014B000AD07AC06ED4C600E7FE87E031214E9ED3B
:0714C0001D70F11C80EE22FB
:0300230002126B5B
:10126B00C0E0C0F0C083C082C0D075D000C000C049
:10127B0001C002C003C004C005C006C007309809F6
:10128B00C298AD997F00120B3F30991BC299900009
:10129B000CE07002A3E060097F00120C028F9980B2
:1012AB000690010A7401F0D007D006D005D004D007
:1012BB0003D002D001D000D0D0D082D083D0F0D0D8
:0212CB00E0320F
:1010BE00900102E0F8A3E0F9A3E0FAA3E0FBE8490F
:1010CE004A4B7005C29CC2AC22EF24FE603B0470FA
:1010DE007590010A7401F043878053890F4389206C
:1010EE00C2CCC2CD43C9A0D28E900102E0F8A3E0DB
:1010FE00F9A3E0FAA3E0FB7FB07E717D0B7C0012BA
:10110E000944EFF404F58D802F90010A7401F075F7
:10111E00C83443C9C0900102E0F8A3E0F9A3E0FA95
:10112E00A3E0FB7FB07E717D0B7C00120944C3E40B
:10113E009FFFE49EF5CB8FCA759850D2AC53C6EF85
:07114E00900106E042C622F9
:1014C700EF25E02404F582E43400F583E0FEA3E091
:0214D700FF22F2
:10142000EF75F003A42410F582E43400F583E0FBAB
:10143000A3E0FAA3E0F9EF25E02400F582E434000C
:0F144000F583E0FEA3E0F5828E8312087BFF2286
:0513E700900101EFF090
:1013EC00900101E0FF25E02404F582E43400F5834C
:1013FC00E0FCA3E04C60E9EF6004C2EC8002C2ACFC
:10140C00900101E0FF1211E1900101E06003D2ECC8
:03141C0022D2AC2D
:01141F0022AA
:0E0E34009000D8EFF0A3EBF0A3EAF0A3E9F0F2
:100E4200A3E0FFA3E0A3CFF0A3EFF0E4A3F0A3F0AD
:100E52009000DEE0FEA3E0FF4E7003020EE590007C
:100E6200D8E0F925E02404F582E43400F583E0FDBE
:100E7200A3E09000E0CDF0A3EDF0D3E09F9000E07E
:100E8200E09E400A9000DEA3A3EEF0A3EFF0E9603B
:100E920004C2EC8002C2ACAF019000D9E0FBA3E037
:100EA200FAA3E0F99000E0E0FDA3E09000A8CDF005
:100EB200A3EDF01200269000D8E06004D2EC80028C
:100EC200D2AC9000E0E0FEA3E0FFC39000DFE09F21
:100ED200F09000DEE09EF09000DAEE8FF01208DC77
:030EE200020E52AB
:010EE50022EA
:100EE6009000E2EFF0A3EDF0A3EBF0A3EAF0A3E9A4
:010EF600F00B
:100EF700A3E0FFA3E0A3CFF0A3EFF09000E9E07039
:100F070002A3E0606A9000E2E0FF25E02404F58296
:100F1700E43400F583E0FCA3E04C60DFEF6004C23B
:100F2700EC8002C2AC9000E2E0FF1211E19000EB0E
:100F3700EFF09000E2E06004D2EC8002D2AC9000C7
:100F4700E3E0FF9000EBE0FE6F60249000EAE0240E
:100F5700FFF09000E9E034FFF09000E4E0FBA3E449
:100F670075F0011208F2A9F0FAEE1208A8808C9029
:100F770000E9E0FEA3E0FFC39000E8E09FFF9000D8
:040F8700E7E09EFE03
:010F8B002243
:0E0D7B009000F6EFF0A3EBF0A3EAF0A3E9F08E
:100D8900E49000FCF0A3F09000FBE024FFF0900059
:100D9900FAE034FFF09000FAE0FEA3E0FFC3900010
:100DA900FDE09F9000FCE09E50669000F6E0FF2574
:100DB900E02404F582E43400F583E0FCA3E04C6010
:100DC900E9EF6004C2EC8002C2AC9000F6E0FF12C9
:100DD90011E19000FEEFF09000F6E06004D2EC80A3
:100DE90002D2AC9000FEE0FF9000F7E0FBA3E0FA2E
:100DF900A3E0F99000FCE475F0011208F285F08295
:100E0900F583EF1208BAEF640D6005EF640A708587
:100E19009000F7E0FBA3E0FAA3E0F99000FCE0FE04
:0B0E2900A3E0FFF5828E83E40208BA0C
:10149600EF25E0240CF582E43400F583E0FEA3E0BA
:0A14A600FFC374409FFFE49EFE2286
:10132100900101EFF0E0FF240AF582E43401F58336
:10133100E06019EF60048DC180028D99900101E098
:10134100240AF582E43401F583E4F022900101E0FE
:10135100FF6004C2EC8002C2AC120F8C900101E06C
:081361006003D2EC22D2AC22A1
:0E0CBF00900101EFF0A3EBF0A3EAF0A3E9F03F
:100CCD00E4A3F0A3F0900102E0FBA3E0FAA3E0F9A6
:100CDD001208627003020D72900101E0FF240AF503
:100CED0082E43401F583E0603BEF9001026012A3D2
:100CFD00E475F0011208F2A9F0FA120862F5C1804C
:100D0D0012E0FBA3E475F0011208F2A9F0FA120843
:100D1D0062F599900101E0240AF582E43401F5832E
:100D2D00E4F08030900101E0FF6004C2EC8002C26B
:100D3D00AC900102E0FBA3E475F0011208F2A9F0FA
:100D4D00FA120862FD120F8C900101E06004D2ECE2
:100D5D008002D2AC900106E004F07006900105E02F
:0D0D6D0004F0020CD2900105E0FEA3E0FFAF
:010D7A002256
:0E0A2B009000ECEFF0A3EBF0A3EAF0A3E9F0EB
:100A3900A3E0FFA3E0A3CFF0A3EFF0E4A3F0A3F0BA
:100A49009000ECE0FF240AF582E43401F583E060CC
:100A590049EF9000ED6014E0FBA3E475F001120882
:100A6900F2A9F0FA120862F5C18012E0FBA3E4755D
:100A7900F0011208F2A9F0FA120862F5999000EC57
:100A8900E0240AF582E43401F583E4F09000F3E010
:100A990024FFF09000F2E034FFF09000F2E0FEA3B2
:100AA900E0FF4E7003020B3E9000ECE0F925E024D4
:100AB9000CF582E43400F583E0FCA3E0FDC3744047
:100AC9009D9000F5F0E49C9000F4F0D3A3E09F9092
:100AD90000F4E09E400A9000F2A3A3EEF0A3EFF029
:100AE900E96004C2EC8002C2ACAF019000EDE0FB0A
:100AF900A3E0FAA3E0F99000F4E0FDA3E09000CFB1
:100B0900CDF0A3EDF01206649000ECE06004D2ECA5
:100B19008002D2AC9000F4E0FEA3E0FFC39000F3A2
:100B2900E09FF09000F2E09EF09000EEEE8FF01260
:050B390008DC020AA324
:010B3E002294
:1013710046001001001C00000044000400000000B1
:101381004400000000000044009C000000004600F2
:101391001601005C00000044000C00000000440045
:0C13A10008000000004400A00000000054
:100B3F0090FFFF120A07EDF090FFFF120A07EFF088
:100B4F00850883850982E025E02404F582E43400DA
:100B5F00F583E0FEA3E0C39440EE940040057F00D0
:100B6F00020BFC850883850982A3E0FF8508838536
:100B7F000982E0FE75F003A42410F582E43400F539
:100B8F0083E0FBA3E0FAA3E0F9EE25E0249CF582D5
:100B9F00E43400F583E0FCA3E0F5828C83EF1208C8
:100BAF00BAEE25E0249CF582E43400F583E475F079
:100BBF00011208DCEE25E0249CF582E43400F58375
:100BCF00C083C082A3E0543FFFD082D083E4F0A360
:100BDF00EFF0850883850982E025E02404F582E49F
:100BEF003400F583E475F0011208DC7F01900002F8
:030BFF00020A07E0
:1011E100EF25E02404F582E43400F583E0FCA3E07C
:1011F1004C7002FF22EF75F003A42410F582E43451
:1012010000F583E0FBA3E0FAA3E0F9EF25E0240079
:10121100F582E43400F583E0FCA3E0F5828C8312CF
:10122100087BFEEF25E02400F582E43400F583E439
:1012310075F0011208DCEF25E02400F582E43400AA
:10124100F583C083C082A3E0543FFDD082D083E404
:10125100F0A3EDF0EF25E02404F582E43400F583FA
:0912610074FFF5F01208DCAF0681
:01126A002261
:100026009000A5EBF0A3EAF0A3E9F09000A4EFF0AE
:1000360025E02404F582E43400F583E0FEA3E0FF26
:100046009000A8E0FCA3E0FDD39FEC9E40037F0058
:10005600229000A4E025E02400F582E43400F58334
:10006600E0FEA3E0FFC374409F9000ABF0E49E90D7
:1000760000AAF0E0FEA3E0FFC3ED9FEC9E50030252
:1000860001679000A4E0FF75F003A42410F582E454
:100096003400F583E0FBA3E0FAA3E0F9EF25E024C2
:1000A60000F582E43400F583E0FEA3E0FFE92FF9D2
:1000B600EA3EFA9000ACEBF0A3EAF0A3E9F0E4A381
:1000C600F0A3F09000AAE0FEA3E0FF9000AFE0FCF2
:1000D600A3E0FDC39FEC9E503C9000ACE0FBA3E088
:1000E600FAA3E0F98D828C8312087BFF9000A5E0CD
:1000F600FBA3E0FAA3E0F9EF1208A89000A6E475C6
:10010600F0011208DC9000B0E004F070069000AF39
:10011600E004F080AE9000A4E0FF25E02400F58224
:10012600E43400F583E4F0A3F0EF25E02404F5823F
:10013600E43400F583C083C082E0FEA3E0FF9000B4
:10014600AAE0FCA3E0FDC3EF9DFFEE9CD082D08326
:10015600F0A3EFF0C39000A9E09DF09000A8E09C0A
:10016600F09000A4E0FF75F003A42410F582E434B7
:1001760000F583E0FBA3E0FAA3E0F9EF25E0240015
:10018600F582E43400F583E0FEA3E0FFE92FF9EA07
:100196003EFA9000ACEBF0A3EAF0A3E9F0E4A3F09A
:1001A600A3F09000A8E0FEA3E0FF9000AFE0FCA360
:1001B600E0FDC39FEC9E503C9000ACE0FBA3E0FA50
:1001C600A3E0F98D828C8312087BFF9000A5E0FBEB
:1001D600A3E0FAA3E0F9EF1208A89000A6E475F0F0
:1001E600011208DC9000B0E004F070069000AFE069
:1001F60004F080AE9000A8E0FEA3E0FF9000A4E02B
:10020600FD25E02400F582E43400F583EE8FF0123C
:1002160008DCED25E02404F582E43400F583C08390
:10022600C082E0FEA3E0FF9000A8E0FCA3E0FDC3CF
:0F023600EF9DFFEE9CD082D083F0A3EFF07F010D
:010245002296
:100466009000B2EBF0A3EAF0A3E9F09000B1EFF050
:1004760025E02404F582E43400F583E0FEA3E0FFE2
:10048600C374409FFFE49EFE9000B5E0FCA3E0FD30
:10049600D39FEC9E40037F00229000B1E025E0242C
:1004A6009CF582E43400F583E0FEA3E0FFC37440CC
:1004B6009F9000B8F0E49E9000B7F0E0FEA3E0FF46
:1004C600C3ED9FEC9E500302059E9000B1E0FF75C0
:1004D600F003A42410F582E43400F583E0FBA3E0E6
:1004E600FAA3E0F9EF25E0249CF582E43400F583D5
:1004F600E0FEA3E0FFE92FF9EA3EFA9000B9EBF03F
:10050600A3EAF0A3E9F0E4A3F0A3F09000B7E0FEBD
:10051600A3E0FF9000BCE0FCA3E0FDC39FEC9E506F
:100526003C9000B2E0FBA3E0FAA3E0F9120862FFF8
:100536009000B9E0FBA3E0FAA3E0F98D828C83EF8B
:100546001208BA9000B3E475F0011208DC9000BD01
:10055600E004F070069000BCE004F080AE9000B1BC
:10056600E0FF25E0249CF582E43400F583E4F0A363
:10057600F09000B7E0FCA3E0FDEF25E02404F5824F
:10058600E43400F583EC8DF01208DCC39000B6E08D
:100596009DF09000B5E09CF09000B1E0FF75F0038F
:1005A600A42410F582E43400F583E0FBA3E0FAA36B
:1005B600E0F9EF25E0249CF582E43400F583E0FEC3
:1005C600A3E0FFE92FF9EA3EFA9000B9EBF0A3EABF
:1005D600F0A3E9F0E4A3F0A3F09000B5E0FEA3E0F9
:1005E600FF9000BCE0FCA3E0FDC39FEC9E503C9056
:1005F60000B2E0FBA3E0FAA3E0F9120862FF900064
:10060600B9E0FBA3E0FAA3E0F98D828C83EF120830
:10061600BA9000B3E475F0011208DC9000BDE00466
:10062600F070069000BCE004F080AE9000B5E0FEED
:10063600A3E0FF9000B1E0FD25E0249CF582E434C0
:1006460000F583EE8FF01208DCED25E02404F58238
:0D065600E43400F583EE8FF01208DC7F0124
:010663002274
:100F8C00900107EFF025E0240CF582E43400F583A2
:100F9C00E0FEA3E0C39440EE940040037F00229057
:100FAC000107E0FE75F003A42416F582E43400F585
:100FBC0083E0FBA3E0FAA3E0F9EE25E024A0F582A0
:100FCC00E43400F583E0FCA3E0F5828C83ED120899
:100FDC00BAEE25E024A0F582E43400F583E475F044
:100FEC00011208DCEE25E024A0F582E43400F58340
:100FFC00C083C082A3E0543FFFD082D083E4F0A32F
:10100C00EFF0900107E025E0240CF582E43400F5C4
:0B101C0083E475F0011208DC7F012264
:0E0C020090FFFF120A07EFF090FFFF120A07A3
:100C1000850883850982A3E0FE25E0240CF582E4A3
:100C20003400F583E0FCA3E04C7004FF020CB985AE
:100C30000883850982A3E0FF75F003A42416F582DA
:100C4000E43400F583E0FBA3E0FAA3E0F9EF25E04C
:100C50002408F582E43400F583E0FCA3E0F5828CFF
:100C60008312087B850883850982F0A3E0FF25E0D5
:100C70002408F582E43400F583E475F0011208DC01
:100C8000EF25E02408F582E43400F583C083C082B8
:100C9000A3E0543FFDD082D083E4F0A3EDF0EE2535
:100CA000E0240CF582E43400F58374FFF5F01208BB
:090CB000DC850883850982E0FF60
:060CB900900002020A0790
:100246009000BFEBF0A3EAF0A3E9F09000BEEFF058
:1002560025E0240CF582E43400F583E0FEA3E0FFFC
:100266009000C2E0FCA3E0FDD39FEC9E40037F001C
:10027600229000BEE025E02408F582E43400F583F0
:10028600E0FEA3E0FFC374409F9000C5F0E49E909B
:1002960000C4F0E0FEA3E0FFC3ED9FEC9E50030216
:1002A60003879000BEE0FF75F003A42416F582E4F0
:1002B6003400F583E0FBA3E0FAA3E0F9EF25E024A0
:1002C60008F582E43400F583E0FEA3E0FFE92FF9A8
:1002D600EA3EFA9000C6EBF0A3EAF0A3E9F0E4A345
:1002E600F0A3F09000C4E0FEA3E0FF9000C9E0FC9C
:1002F600A3E0FDC39FEC9E503C9000C6E0FBA3E04C
:10030600FAA3E0F98D828C8312087BFF9000BFE090
:10031600FBA3E0FAA3E0F9EF1208A89000C0E47589
:10032600F0011208DC9000CAE004F070069000C9E3
:10033600E004F080AE9000BEE0FF25E02408F582E0
:10034600E43400F583E4F0A3F0EF25E0240CF58215
:10035600E43400F583C083C082E0FEA3E0FF900092
:10036600C4E0FCA3E0FDC3EF9DFFEE9CD082D083EA
:10037600F0A3EFF0C39000C3E09DF09000C2E09CB4
:10038600F09000BEE0FF75F003A42416F582E43475
:1003960000F583E0FBA3E0FAA3E0F9EF25E02408EB
:1003A600F582E43400F583E0FEA3E0FFE92FF9EAE5
:1003B6003EFA9000C6EBF0A3EAF0A3E9F0E4A3F05E
:1003C600A3F09000C2E0FEA3E0FF9000C9E0FCA30A
:1003D600E0FDC39FEC9E503C9000C6E0FBA3E0FA14
:1003E600A3E0F98D828C8312087BFF9000BFE0FBAF
:1003F600A3E0FAA3E0F9EF1208A89000C0E475F0B4
:10040600011208DC9000CAE004F070069000C9E012
:1004160004F080AE9000C2E0FEA3E0FF9000BEE0D4
:10042600FD25E02408F582E43400F583EE8FF01212
:1004360008DCED25E0240CF582E43400F583C08366
:10044600C082E0FEA3E0FF9000C2E0FCA3E0FDC393
:0F045600EF9DFFEE9CD082D083F0A3EFF07F01EB
:010465002274
:100664009000CCEBF0A3EAF0A3E9F09000CBEFF01C
:1006740025E0240CF582E43400F583E0FEA3E0FFDA
:10068400C374409FFFE49EFE9000CFE0FCA3E0FD16
:10069400D39FEC9E40037F00229000CBE025E02412
:1006A40008F582E43400F583E0FEA3E0FFC3744060
:1006B4009F9000D2F0E49E9000D1F0E0FEA3E0FF12
:1006C400C3ED9FEC9E500302079C9000CBE0FF75A6
:1006D400F003A42416F582E43400F583E0FBA3E0E0
:1006E400FAA3E0F9EF25E024A0F582E43400F583D1
:1006F400E0FEA3E0FFE92FF9EA3EFA9000D3EBF025
:10070400A3EAF0A3E9F0E4A3F0A3F09000D1E0FEA3
:10071400A3E0FF9000D6E0FCA3E0FDC39FEC9E5055
:100724003C9000CCE0FBA3E0FAA3E0F9120862FFDE
:100734009000D3E0FBA3E0FAA3E0F98D828C83EF71
:100744001208BA9000CDE475F0011208DC9000D7CD
:10075400E004F070069000D6E004F080AE9000CB88
:10076400E0FF25E024A0F582E43400F583E4F0A35F
:10077400F09000D1E0FCA3E0FDEF25E0240CF5822D
:10078400E43400F583EC8DF01208DCC39000D0E073
:100794009DF09000CFE09CF09000CBE0FF75F0035B
:1007A400A42416F582E43400F583E0FBA3E0FAA365
:1007B400E0F9EF25E024A0F582E43400F583E0FEBF
:1007C400A3E0FFE92FF9EA3EFA9000D3EBF0A3EAA5
:1007D400F0A3E9F0E4A3F0A3F09000CFE0FEA3E0DF
:1007E400FF9000D6E0FCA3E0FDC39FEC9E503C903C
:1007F40000CCE0FBA3E0FAA3E0F9120862FF90004A
:10080400D3E0FBA3E0FAA3E0F98D828C83EF120816
:10081400BA9000CDE475F0011208DC9000D7E00432
:10082400F070069000D6E004F080AE9000CFE0FEB9
:10083400A3E0FF9000CBE0FD25E024A0F582E434A2
:1008440000F583EE8FF01208DCED25E0240CF58230
:0D085400E43400F583EE8FF01208DC7F0124
:010861002274
:10116100021027E493A3F8E493A34003F68001F26D
:1011710008DFF48029E493A3F85407240CC8C3338F
:10118100C4540F4420C8834004F456800146F6DF5E
:10119100E4800B0102040810204080901369E47E72
:1011A100019360BCA3FF543F30E509541FFEE49353
:1011B100A360010ECF54C025E060A840B8E493A31A
:1011C100FAE493A3F8E493A3C8C582C8CAC583CA45
:1011D100F0A3C8C582C8CAC583CADFE9DEE780BEFD
:0113AD00003F
:10086200BB010689828A83E0225002E722BBFE0294
:09087200E32289828A83E49322C7
:10087B00BB010CE58229F582E5833AF583E0225032
:10088B0006E92582F8E622BBFE06E92582F8E2227C
:0D089B00E58229F582E5833AF583E4932296
:1008A800BB010689828A83F0225002F722BBFE012F
:0208B800F32229
:1008BA00F8BB010DE58229F582E5833AF583E8F074
:1008CA00225006E92582C8F622BBFE05E92582C820
:0208DA00F22208
:1008DC00C5F0F8A3E028F0C5F0F8E58215827002A7
:0608EC001583E038F02244
:1008F200A3F8E0C5F025F0F0E582158270021583B9
:06090200E0C838F0E82215
:1009080075F008758200EF2FFFEE33FECD33CDCCA6
:1009180033CCC58233C5829BED9AEC99E582984029
:100928000CF582EE9BFEED9AFDEC99FC0FD5F0D606
:10093800E4CEFBE4CDFAE4CCF9A88222B800C1B930
:100948000059BA002DEC8BF084CFCECDFCE5F0CB6E
:10095800F97818EF2FFFEE33FEED33FDEC33FCEBA7
:1009680033FB10D703994004EB99FB0FD8E5E4F962
:10097800FA227818EF2FFFEE33FEED33FDEC33FC4F
:10098800C933C910D7059BE99A4007EC9BFCE99A43
:10099800F90FD8E0E4C9FAE4CCFB2275F010EF2F88
:1009A800FFEE33FEED33FDCC33CCC833C810D70788
:1009B8009BEC9AE899400AED9BFDEC9AFCE899F8C3
:0E09C8000FD5F0DAE4CDFBE4CCFAE4C8F92256
:1009D600A8828583F0D083D0821209ED1209ED1228
:1009E60009ED1209EDE473E493A3C583C5F0C5834D
:1009F600C8C582C8F0A3C583C5F0C583C8C582C86B
:010A060022CD
:100A0700E5092582F582E5083583F583B508048570
:100A170082092210AF06858209F50822858209F529
:040A270008D2AF2220
:00000001FF
