:03000000020EBE2F
:0C0EBE00787FE4F6D8FD758109020F056D
:081336004100B0FF4100B1FFCE
:02138D00A907AE
:10138F00ED24FD600A24027048AC92AE938004AC49
:10139F0096AE97E914601414601614601C24037041
:1013AF0030EBF4FF5CFCEE5FFE8014EBF45C800B23
:1013BF00EC4BFCEBF45EFE8006EC4BFCEE4BFEEDD3
:1013CF0024FD6009240270098C928E93228C968ED4
:0113DF009776
:0113E00022EA
:10174F00EF24FD600C240270119000B0EDF0F590C5
:0B175F0022AF059000B1EFF0F5B022C2
:10184400EF24FD600724027006AF9022AFB0227F20
:02185400002270
:10158000EF24FD601C2402702FEB9000B06006E099
:101590004DFFF08009E0FFEDF4FEEF5EFFF08F906D
:1015A00022EB9000B16006E04DFFF08009E0FFED16
:0915B000F4FEEF5EFFF08FB022A3
:1016F100EF24FD600F24027016E5905D60037F0109
:10170100227F0022E5B05D60037F01227F00227FFE
:021711000022B4
:10176A00EF24FD600D240270119000B0E04DF0F5F9
:0B177A0090229000B1E04DF0F5B0228D
:10002E00EF24FD60122402701B9000B0E0FFEDF48F
:10003E00FEEF5EF0F590229000B1E0FFEDF4FEEFE2
:05004E005EF0F5B02298
:03002300021219AD
:10121900C0E0C0F0C083C082C0D075D000C000C09B
:1012290001C002C003C004C005C006C00730980948
:10123900C298AD997F00120AFA30991AC299E4FF4F
:10124900121868EF4E60097F00120A418F998006D3
:101259009000B27401F0D007D006D005D004D003B5
:10126900D002D001D000D0D0D082D083D0F0D0E04D
:011279003242
:0300530002127A1C
:10127A00C0E0C0F0C083C082C0D075D000C000C03A
:10128A0001C002C003C004C005C006C00730C009BF
:10129A00C2C0ADC17F01120AFA30C11AC2C17F01B0
:1012AA00121868EF4E60097F01120A418FC1800649
:1012BA009000B37401F0D007D006D005D004D00353
:1012CA00D002D001D000D0D0D082D083D0F0D0E0EC
:0112DA0032E1
:100D9600900060E0F8A3E0F9A3E0FAA3E0FBE849DD
:100DA6004A4B7005C29CC2AC22EF24FE603B047025
:100DB600759000B27401F043878053890F438920F0
:100DC600C2CCC2CD43C9A0D28E900060E0F8A3E0A9
:100DD600F9A3E0FAA3E0FB7F607EE37D167C0012B8
:100DE60003ABEFF404F58D802F9000B27401F0751B
:100DF600C83443C9C0900060E0F8A3E0F9A3E0FA64
:100E0600A3E0FB7F607EE37D167C001203ABC3E4A8
:100E16009FFFE49EF5CB8FCA759850D2AC53C6EFB0
:070E2600900064E042C622C7
:1015B900EC4D4E4F7005C2C4C2EC229000B37401C9
:1015C900F075C030AB07AA06A905A8047F607EE3C1
:1015D9007D167C001203ABEFF404F5C2D2EC53C6BE
:0815E900DF9000AFE042C622D2
:0300260002185667
:0318900002150C32
:0516210090005FEFF0F6
:1016260090005FE0FF1217D3EF70F590005FE0FFC8
:101636006004C2EC8002C2AC12105590005FE060FC
:0616460003D2EC22D2AC3D
:01164C00227B
:0E0C5900900066EFF0A3EBF0A3EAF0A3E9F041
:100C6700A3E0FFA3E0A3CFF0A3EFF0E4A3F0A3F08A
:100C770090006CE07002A3E0607B900066E0FF12DA
:100C8700185690006EEEF0A3EFF090006CE0FCA316
:100C9700E0FDC39FEC9E5006A3ECF0A3EDF090009F
:100CA70066E0FF6004C2EC8002C2AC900067E0FB24
:100CB700A3E0FAA3E0F990006EE0FDA3E0900091B5
:100CC700CDF0A3EDF01205B5900066E06004D2EC1C
:100CD7008002D2AC90006EE0FEA3E0FFC390006DEF
:100CE700E09FF090006CE09EF0900068EE8FF012AD
:050CF7000343020C772D
:010CFC0022D5
:100CFD00900070EFF0A3EDF0A3EBF0A3EAF0A3E901
:010D0D00F0F5
:100D0E00A3E0FFA3E0A3CFF0A3EFF0900077E07095
:100D1E0002A3E0605D900070E0FF1217D3EF70EB5E
:100D2E00900070E0FF6004C2EC8002C2AC1210555D
:100D3E00900079EFF0900070E06004D2EC8002D267
:100D4E00AC900071E0FF900079E0FE6F602490009F
:100D5E0078E024FFF0900077E034FFF0900072E02E
:100D6E00FBA3E475F001120359A9F0FAEE12030F7A
:100D7E008099900077E0FEA3E0FFC3900076E09F9D
:070D8E00FF900075E09EFEDE
:010D9500223B
:0E0BAD00900084EFF0A3EBF0A3EAF0A3E9F0D0
:100BBB00E490008AF0A3F0900089E024FFF090000D
:100BCB0088E034FFF0900088E0FEA3E0FFC39000C4
:100BDB008BE09F90008AE09E5059900084E0FF12BA
:100BEB0017D3EF70F5900084E0FF6004C2EC800235
:100BFB00C2AC12105590008CEFF0900084E06004B2
:100C0B00D2EC8002D2AC90008CE0FF900085E0FB30
:100C1B00A3E0FAA3E0F990008AE475F001120359FE
:100C2B0085F082F583EF120321EF640D6005EF640D
:100C3B000A7092900085E0FBA3E0FAA3E0F9900024
:0E0C4B008AE0FEA3E0FFF5828E83E40203211F
:0318930002179F9A
:10147C0090005FEFF0E0FF24B2F582E43400F583D6
:10148C00E06019EF60048DC180028D9990005FE0DF
:10149C0024B2F582E43400F583E4F02290005FE09E
:1014AC00FF6004C2EC8002C2AC120F4A90005FE0F5
:0814BC006003D2EC22D2AC2245
:0E09850090005FEFF0A3EBF0A3EAF0A3E9F01F
:10099300E4A3F0A3F0900060E0FBA3E0FAA3E0F986
:1009A3001202C97003020A3890005FE0FF24B2F517
:1009B30082E43400F583E0603BEF9000606012A3B3
:1009C300E475F001120359A9F0FA1202C9F5C180C6
:1009D30012E0FBA3E475F001120359A9F0FA120225
:1009E300C9F59990005FE024B2F582E43400F58301
:1009F300E4F0803090005FE0FF6004C2EC8002C24C
:100A0300AC900060E0FBA3E475F001120359A9F078
:100A1300FA1202C9FD120F4A90005FE06004D2ECA3
:100A23008002D2AC900064E004F07006900063E0B2
:0D0A330004F0020998900063E0FEA3E0FFCC
:010A40002293
:0E04B70090007AEFF0A3EBF0A3EAF0A3E9F0D7
:1004C500A3E0FFA3E0A3CFF0A3EFF0E4A3F0A3F034
:1004D50090007AE0FF24B2F582E43400F583E06011
:1004E50049EF90007B6014E0FBA3E475F001120373
:1004F50059A9F0FA1202C9F5C18012E0FBA3E4750F
:10050500F001120359A9F0FA1202C9F59990007A7F
:10051500E024B2F582E43400F583E4F0900081E054
:1005250024FFF0900080E034FFF0900080E070023E
:10053500A3E0607B90007AE0FF12179F900082EEA7
:10054500F0A3EFF0900080E0FCA3E0FDC39FEC9EDC
:100555005006A3ECF0A3EDF090007AE0FF6004C232
:10056500EC8002C2AC90007BE0FBA3E0FAA3E0F9CB
:10057500900082E0FDA3E09000A3CDF0A3EDF01282
:10058500089A90007AE06004D2EC8002D2AC900028
:1005950082E0FEA3E0FFC3900081E09FF090008021
:0F05A500E09EF090007CEE8FF012034302052FD2
:0105B4002224
:10133E0046001001001C01002444000400000000BF
:10134E004400000000000044003C00000000460085
:10135E001601002C01003444000C00000000440073
:0C136E00080000000044004000000000E7
:10185600EF25E02404F582E43400F583E0FEA3E0FE
:02186600FF225F
:10178500EF25E02404F582E43400F583E0FEA3E0D0
:0A179500FFC374089FFFE49EFE22CC
:1017D300EF25E02404F582E43400F583E0FEA3E082
:0917E3004E70037F01227F0022F9
:10171300EF25E02404F582E43400F583E0FEA3E042
:0E172300C39408EE940040037F01227F002251
:100AFA0090FFFF120493EDF090FFFF120493EFF0C2
:100B0A00850883850982E0FF121713EF60057F00CD
:100B1A00020BA7850883850982A3E0FF85088385E0
:100B2A000982E0FE75F003A42410F582E43400F58E
:100B3A0083E0FBA3E0FAA3E0F9EE25E0243CF5828A
:100B4A00E43400F583E0FCA3E0F5828C83EF120322
:100B5A0021EE25E0243CF582E43400F583E475F0C7
:100B6A0001120343EE25E0243CF582E43400F583C8
:100B7A00C083C082A3E05407FFD082D083E4F0A3ED
:100B8A00EFF0850883850982E025E02404F582E4F4
:100B9A003400F583E475F0011203437F01900002EB
:030BAA00020493AF
:02105500AD07E5
:101057001217D3EF60037F0022ED75F003A424106D
:10106700F582E43400F583E0FBA3E0FAA3E0F9EDB1
:1010770025E02400F582E43400F583E0FEA3E0F5E3
:10108700828E831202E2FFED25E02400F582E4342C
:1010970000F583E475F001120343ED25E02400F524
:1010A70082E43400F583C083C082A3E05407FBD0F9
:1010B70082D083E4F0A3EBF0ED25E02404F582E48D
:0B10C7003400F58374FFF5F0120343C2
:0110D20022FB
:10150C00AD071217D3EF60037F0022ED75F003A433
:10151C002410F582E43400F583E0FBA3E0FAA3E0A9
:10152C00F9ED25E02400F582E43400F583E0FEA318
:0A153C00E0F5828E831202E2FF2226
:1005B50090008EEBF0A3EAF0A3E9F090008DEFF048
:1005C50025E02404F582E43400F583E0FEA3E0FF92
:1005D500900091E0FCA3E0FDD39FEC9E40037F00DB
:1005E5002290008DE025E02404F582E43400F583B3
:1005F500C083C082C3A3E09DFF0582D58202158317
:100605001582E09CD082D083F0A3EFF0900091E0BA
:100615007002A3E070030206AF90008DE0FF75F055
:1006250003A42410F582E43400F583E0FBA3E0FA8B
:10063500A3E0F9EF25E02400F582E43400F583E03A
:10064500FEA3E0F5828E831202E2FF90008EE0FBAE
:10065500A3E0FAA3E0F9EF12030F90008DE0FF2568
:10066500E02400F582E43400F583E475F00112031B
:1006750043EF25E02400F582E43400F583C083C010
:1006850082A3E05407FFD082D083E4F0A3EFF0907B
:10069500008FE475F001120343900092E024FFF00F
:0D06A500900091E034FFF00206117F012269
:1007AF00900094EBF0A3EAF0A3E9F0900093EFF040
:1007BF0025E02404F582E43400F583E0FEA3E0FF96
:1007CF00C374089FFFE49EFE900097E0FCA3E0FD3A
:1007DF00D39FEC9E40037F0022900093E025E024FE
:1007EF0004F582E43400F583EC8DF012034390009E
:1007FF0097E07002A3E07003020897900094E0FB6B
:10080F00A3E0FAA3E0F91202C9FF900093E0FE758E
:10081F00F003A42410F582E43400F583E0FBA3E099
:10082F00FAA3E0F9EE25E0243CF582E43400F583E9
:10083F00E0FCA3E0F5828C83EF120321EE25E02488
:10084F003CF582E43400F583E475F001120343EEC6
:10085F0025E0243CF582E43400F583C083C082A3F5
:10086F00E05407FFD082D083E4F0A3EFF09000951F
:10087F00E475F001120343900098E024FFF090001C
:0B088F0097E034FFF00207FD7F01221C
:10186800EF25E0240CF582E43400F583E0FEA3E0E4
:02187800FF224D
:10179F00EF25E0240CF582E43400F583E0FEA3E0AE
:0A17AF00FFC374089FFFE49EFE22B2
:1017EC00EF25E0240CF582E43400F583E0FEA3E061
:0917FC004E70037F01227F0022E0
:10173100EF25E0240CF582E43400F583E0FEA3E01C
:0E174100C39408EE940040037F01227F002233
:100F4A00900065EFF0121731EF60037F00229000E6
:100F5A0065E0FE75F003A42416F582E43400F583F7
:100F6A00E0FBA3E0FAA3E0F9EE25E02440F582E4F1
:100F7A003400F583E0FCA3E0F5828C83ED120321B3
:100F8A00EE25E02440F582E43400F583E475F001AF
:100F9A00120343EE25E02440F582E43400F583C0D1
:100FAA0083C082A3E05407FFD082D083E4F0A3EF8A
:100FBA00F0900065E025E0240CF582E43400F58326
:0A0FCA00E475F0011203437F0122D9
:0E0A410090FFFF120493EFF090FFFF1204935A
:100A4F00850883850982A3E0FF1217ECEF60057F0D
:100A5F0000020AF4850883850982A3E0FF75F0037D
:100A6F00A42416F582E43400F583E0FBA3E0FAA397
:100A7F00E0F9EF25E02408F582E43400F583E0FE89
:100A8F00A3E0F5828E831202E2850883850982F046
:100A9F00A3E0FF25E02408F582E43400F583E47534
:100AAF00F001120343EF25E02408F582E43400F54A
:100ABF0083C083C082A3E05407FFD082D083E4F0C9
:100ACF00A3EFF0850883850982A3E025E0240CF5C8
:100ADF0082E43400F58374FFF5F012034385088335
:050AEF00850982E0FF13
:060AF400900002020493D1
:10154600AD071217ECEF60037F0022ED75F003A4E0
:101556002416F582E43400F583E0FBA3E0FAA3E069
:10156600F9ED25E02408F582E43400F583E0FEA3D6
:0A157600E0F5828E831202E2FF22EC
:1006B20090009AEBF0A3EAF0A3E9F0900099EFF032
:1006C20025E0240CF582E43400F583E0FEA3E0FF8C
:1006D20090009DE0FCA3E0FDD39FEC9E40037F00D1
:1006E20022900099E025E0240CF582E43400F583A1
:1006F200C083C082C3A3E09DFF0582D58202158319
:100702001582E09CD082D083F0A3EFF090009DE0B0
:100712007002A3E070030207AC900099E0FF75F04D
:1007220003A42416F582E43400F583E0FBA3E0FA87
:10073200A3E0F9EF25E02408F582E43400F583E034
:10074200FEA3E0F5828E831202E2FF90009AE0FBA4
:10075200A3E0FAA3E0F9EF12030F900099E0FF255E
:10076200E02408F582E43400F583E475F001120315
:1007720043EF25E02408F582E43400F583C083C00A
:1007820082A3E05407FFD082D083E4F0A3EFF0907D
:10079200009BE475F00112034390009EE024FFF0F9
:0D07A20090009DE034FFF002070E7F012261
:10089A009000A0EBF0A3EAF0A3E9F090009FEFF03C
:1008AA0025E0240CF582E43400F583E0FEA3E0FFA2
:1008BA00C374089FFFE49EFE9000A3E0FCA3E0FD42
:1008CA00D39FEC9E40037F002290009FE025E02406
:1008DA000CF582E43400F583EC8DF01203439000AA
:1008EA00A3E07002A3E070030209829000A0E0FB7B
:1008FA00A3E0FAA3E0F91202C9FF90009FE0FE7597
:10090A00F003A42416F582E43400F583E0FBA3E0A7
:10091A00FAA3E0F9EE25E02440F582E43400F583F9
:10092A00E0FCA3E0F5828C83EF120321EE25E0249C
:10093A0040F582E43400F583E475F001120343EED6
:10094A0025E02440F582E43400F583C083C082A305
:10095A00E05407FFD082D083E4F0A3EFF09000A127
:10096A00E475F0011203439000A4E024FFF0900024
:0B097A00A3E034FFF00208E87F012238
:06188A00426F6F62610075
:1000560090005C7404F0E4A3F0A3F012187A7BB26B
:100066007D017F0112138D7B407D01E4FF12138D0C
:10007600E4FD7F0412000E7B187D037F0312138DAF
:100086009000627410F07B037D087F031216CE7B0E
:10009600027D037F0112138D7B017D03E4FF1213A2
:1000A6008D90006012045C0001E848E4900064F062
:1000B6007F01120D967B007A007900E4FF120E2D67
:1000C6007DC07C5DE4FF1213E1D2AFC2AE7D027F3C
:1000D6000112002E7DFA7C00E4FF1215F17D027FED
:1000E6000112176A7DFA7C00E4FF1215F17BFF7A94
:1000F60018798AE4FF120985E4FF120026EF4E60A4
:10010600F7E4FF121621900057EFF014B40D0040EB
:10011600030202B490012875F003A4C58325F0C537
:10012600837302014F0201570202180202240202DF
:100136004C02026002026F02027B0202800202850A
:1001460002029402029E0202AAE4FF121621020291
:100156009790005812045C00000000900058E0F8E8
:10016600A3E0F9A3E0FAA3E0FBC000C001C002C00F
:1001760003E4FF121621D003D002D001D000EB4FCA
:10018600FFEAFEE9FDE8FC90005812045090005882
:10019600E0FCA3E0FDA3E0FEA3E0FF780812043D27
:1001A600900058120450900058E0F8A3E0F9A3E03C
:1001B600FAA3E0FBC000C001C002C003E4FF1216B0
:1001C60021D003D002D001D000EB4FFFEAFEE9FDBB
:1001D600E8FC900058120450900058E0FCA3E0FDA3
:1001E600A3E0FEA3E0FF780712043D900058120436
:1001F60050900058E0FCA3E0FDA3E0FEA3E0FF90D2
:100206000060120450E4900064F07F01120D960223
:1002160002B4E4FF12162190005CEFF08020E4FFA8
:10022600121621900057EFF06403700890005D7479
:1002360008F08005E490005DF090005CE0FFA3E02C
:10024600FD12000E8068E4FF121621900057EFF0B1
:10025600FB7D107F011215808054E4FF1216219059
:100266000057EFF01200038028E4FF121621E4FF86
:10027600121621803912164D8034121679802FE419
:10028600FF121621900057EFF01210D38020120FA4
:10029600D4900057EFF08010E4FF1216219000A6CC
:1002A600EFF0800A9000A5E0FDE4FF12147C9000B8
:1002B6005EE004F0E0F45401FB7D027F011215803C
:0302C6000200FE35
:10187A0075A15575A1AA53B9F843B90675A1FF22F6
:1017B900EF4E601505A105A105A105A105A105A18A
:0A17C90005A1EF1F70EA1E80E72261
:10180500AD07AC06ED4C600E7FE87E031217B9ED0F
:071815001D70F11C80EE22A2
:1016CE009000A7EFF0AE05A3EEF0A3EBF090006252
:1016DE00E09000AAF012176A9000A9E0FFA3E0FDC7
:0316EE0002176A76
:10164D009000A9E0FFA3E0FD12002E9000A7E0FF9F
:10165D00A3E0FD12176A9000A9E0FFA3E0FD1217A9
:0C166D006A9000A7E0FFA3E0FD02002E41
:101679009000A9E0FFA3E0FD12002E9000A7E0FF73
:10168900A3E0FD12002E9000A9E0FFA3E0FD1217D0
:0C1699006A9000A7E0FFA3E0FD02176AC2
:0510D30090005FEFF04A
:1010D800E4A3F0900060E0C39408748094805035D5
:1010E8009000A9E0FFA3E0FD12002E9000A7E0FF0A
:1010F800A3E0FD90005FE05480FB1215809000A9EA
:10110800E0FFA3E0FD12176A90005FE025E0F0A37E
:10111800E004F080BE9000A9E0FFA3E0FD12002EDD
:101128009000A7E0FFA3E0FD12176A9000A9E0FF76
:10113800A3E0FD12176A9000A7E0FFA3E0FD1216D6
:08114800F1EF64019000A5F035
:01115000227C
:100FD400E490005FF0A3F0900060E0C39408748094
:100FE4009480503F9000A9E0FFA3E0FD12002E90F2
:100FF40000A7E0FFA3E0FD12176A9000A9E0FFA399
:10100400E0FD12176A90005FE025E0F09000A7E091
:10101400FFA3E0FD1216F190005FE04FF0A3E0049F
:10102400F080B49000A9E0FFA3E0FD12002E900030
:10103400A7E0FFA3E0FD9000A6E06401FB12158089
:101044009000A9E0FFA3E0FD12176A90005FE0FFA3
:011054002279
:10137A0043004E00000043005100000043005400A7
:02138A00000061
:03000B000211518E
:10115100C0E0C0F0C083C082C0D075D000C000C064
:1011610001C002C003C004C005C006C00790004A08
:10117100E0FEA3E0F58AEEF58C900045E004F07006
:1011810006900044E004F090004EE0FBA3E0FAA3D7
:10119100E0F9EA494B600312048DD007D006D0056F
:1011A100D004D003D002D001D000D0D0D082D083DF
:0511B100D0F0D0E03297
:03001B000211B619
:1011B600C0E0C0F0C083C082C0D075D000C000C0FF
:1011C60001C002C003C004C005C006C00790004CA1
:1011D600E0F58BA3E0F58D900047E004F0700690F3
:1011E6000046E004F0900051E0FBA3E0FAA3E0F92A
:1011F600EA494B600312048DD007D006D005D0040F
:10120600D003D002D001D000D0D0D082D083D0F08D
:03121600D0E032F3
:03002B000212DBE3
:1012DB00C0E0C0F0C083C082C0D075D000C000C0D9
:1012EB0001C002C003C004C005C006C0079000497E
:1012FB00E004F07006900048E004F0900054E0FB2E
:10130B00A3E0FAA3E0F9EA494B600312048DC2CFC4
:10131B00D007D006D005D004D003D002D001D00026
:0B132B00D0D0D082D083D0F0D0E032D0
:100E2D0090005FEBF0A3EAF0A3E9F0EF146031144A
:100E3D0060582402707AC28C5389F043890143C9EA
:100E4D0090E4900044F0A3F090005FE0F9A3E0FA85
:100E5D00A3E090004EC9F0A3EAF0A3E9F0D2A922D5
:100E6D00C28E53890F43891043C9A0E4900046F008
:100E7D00A3F090005FE0F9A3E0FAA3E0900051C960
:100E8D00F0A3EAF0A3E9F0D2AB22E4F5C853C9F020
:100E9D0043C9C0900048F0A3F090005FE0F9A3E0D3
:100EAD00FAA3E0900054C9F0A3EAF0A3E9F0D2ADA3
:010EBD002212
:1013E100EDF4FDECF4FCED2401FDE43CFCEF1460B4
:1013F1001A14602A2402703990004AECF0A3EDF02F
:10140100F58AECF58CE4900044802390004CECF0DC
:10141100A3EDF0F58BECF58DE490004680108CCBBC
:101421008DCAAE04AF058ECD8FCCE4900048F0A3F9
:01143100F0CA
:011432002297
:1016A500EF1460111460182402701DED6003D380DF
:1016B50001C392A922ED6003D38001C392AB22ED51
:0916C5006003D38001C392AD2241
:10181C00EF14600A14600A24027008D28C22D28E53
:04182C0022D2CA22D8
:10183000EF14600A14600A24027008C28C22C28E5F
:0418400022C2CA22D4
:10143300EF14601414602A24027035AF8CEFFCAFF4
:101443008AEFFD90004A800BAF8DEFFCAF8BEFFD71
:1014530090004CE0FEA3E0FFC3ED9FFDEC9EFC80FB
:1014630013ACCDADCCC3ED95CAFDEC95CBFC80049C
:08147300E4FEFF22AF05AE0408
:01147B00224E
:1014C400EDF4FDECF4FCED2401FDE43CFCEF1460D0
:1014D400161460222402702F8D8AECF58CC28DD2F2
:1014E4008C308DFDC28C228D8BECF58DC28FD28E0B
:1014F400308FFDC28E22AE04AF058ECD8FCCC2CF0D
:07150400D2CA30CFFDC2CABC
:01150B0022BD
:1015F100AE07EE25E02444F582E43400F583E4F0FF
:10160100A3F012181CEE25E02444F582E43400F521
:1016110083E0FAA3E0C39DEA9C40EAAF06021830DA
:0C000E008FFBE4F5FC75FA60ED42FA226D
:04001E0075FA02224B
:080003008FF930FBFDAFF9227B
:100ECA00020056E493A3F8E493A34003F68001F2E8
:100EDA0008DFF48029E493A3F85407240CC8C33329
:100EEA00C4540F4420C8834004F456800146F6DFF8
:100EFA00E4800B0102040810204080901336E47E3F
:100F0A00019360BCA3FF543F30E509541FFEE493EC
:100F1A00A360010ECF54C025E060A840B8E493A3B3
:100F2A00FAE493A3F8E493A3C8C582C8CAC583CADE
:100F3A00F0A3C8C582C8CAC583CADFE9DEE780BE96
:01138C000060
:1002C900BB010689828A83E0225002E722BBFE0233
:0902D900E32289828A83E4932266
:1002E200BB010CE58229F582E5833AF583E02250D1
:1002F20006E92582F8E622BBFE06E92582F8E2221B
:0D030200E58229F582E5833AF583E4932234
:10030F00BB010689828A83F0225002F722BBFE01CD
:02031F00F322C7
:10032100F8BB010DE58229F582E5833AF583E8F012
:10033100225006E92582C8F622BBFE05E92582C8BE
:02034100F222A6
:10034300C5F0F8A3E028F0C5F0F8E5821582700245
:060353001583E038F022E2
:10035900A3F8E0C5F025F0F0E58215827002158357
:06036900E0C838F0E822B4
:10036F0075F008758200EF2FFFEE33FECD33CDCC45
:10037F0033CCC58233C5829BED9AEC99E5829840C8
:10038F000CF582EE9BFEED9AFDEC99FC0FD5F0D6A5
:10039F00E4CEFBE4CDFAE4CCF9A88222B800C1B9CF
:1003AF000059BA002DEC8BF084CFCECDFCE5F0CB0D
:1003BF00F97818EF2FFFEE33FEED33FDEC33FCEB46
:1003CF0033FB10D703994004EB99FB0FD8E5E4F901
:1003DF00FA227818EF2FFFEE33FEED33FDEC33FCEE
:1003EF00C933C910D7059BE99A4007EC9BFCE99AE2
:1003FF00F90FD8E0E4C9FAE4CCFB2275F010EF2F27
:10040F00FFEE33FEED33FDCC33CCC833C810D70726
:10041F009BEC9AE899400AED9BFDEC9AFCE899F861
:0E042F000FD5F0DAE4CDFBE4CCFAE4C8F922F4
:10043D00E8600FEFC333FFEE33FEED33FDEC33FC1D
:03044D00D8F122C1
:0C045000ECF0A3EDF0A3EEF0A3EFF0221F
:10045C00A8828583F0D083D08212047312047312A5
:10046C000473120473E473E493A3C583C5F0C583CA
:10047C00C8C582C8F0A3C583C5F0C583C8C582C8EA
:01048C00224D
:06048D008A838982E473FA
:10049300E5092582F582E5083583F583B5080485EA
:1004A30082092210AF06858209F50822858209F5A3
:0404B30008D2AF229A
:00000001FF
