:03000000020CFBF4
:0C0CFB00787FE4F6D8FD758109020D42F7
:0810D0004100ADFF4100AEFF3D
:02112700A90716
:10112900ED24FD600A24027048AC92AE938004ACB1
:1011390096AE97E914601414601614601C240370A9
:1011490030EBF4FF5CFCEE5FFE8014EBF45C800B8B
:10115900EC4BFCEBF45EFE8006EC4BFCEE4BFEED3B
:1011690024FD6009240270098C928E93228C968E3C
:0111790097DE
:01117A002252
:10131A00EF24FD601C2402702FEB9000AD6006E004
:10132A004DFFF08009E0FFEDF4FEEF5EFFF08F90D5
:10133A0022EB9000AE6006E04DFFF08009E0FFED81
:09134A00F4FEEF5EFFF08FB0220B
:10143500EF24FD600F24027016E5905D60037F01C7
:10144500227F0022E5B05D60037F01227F00227FBD
:02145500002273
:10149300EF24FD600D240270119000ADE04DF0F5D6
:0B14A30090229000AEE04DF0F5B0226A
:10141000EF24FD60122402701B9000ADE0FFEDF49C
:10142000FEEF5EF0F590229000AEE0FFEDF4FEEFEF
:051430005EF0F5B022A2
:1010D80043004E000000430051000000430054004C
:0210E800000006
:03000B00020E8F53
:100E8F00C0E0C0F0C083C082C0D075D000C000C029
:100E9F0001C002C003C004C005C006C00790004ACD
:100EAF00E0FEA3E0F58AEEF58C900045E004F070CB
:100EBF0006900044E004F090004EE0FBA3E0FAA39C
:100ECF00E0F9EA494B60031201FBD007D006D005C9
:100EDF00D004D003D002D001D000D0D0D082D083A4
:050EEF00D0F0D0E0325C
:03001B00020EF4DE
:100EF400C0E0C0F0C083C082C0D075D000C000C0C4
:100F040001C002C003C004C005C006C00790004C65
:100F1400E0F58BA3E0F58D900047E004F0700690B7
:100F24000046E004F0900051E0FBA3E0FAA3E0F9EE
:100F3400EA494B60031201FBD007D006D005D00468
:100F4400D003D002D001D000D0D0D082D083D0F052
:030F5400D0E032B8
:03002B000210754B
:10107500C0E0C0F0C083C082C0D075D000C000C041
:1010850001C002C003C004C005C006C007900049E6
:10109500E004F07006900048E004F0900054E0FB96
:1010A500A3E0FAA3E0F9EA494B60031201FBC2CFC2
:1010B500D007D006D005D004D003D002D001D0008F
:0B10C500D0D0D082D083D0F0D0E03239
:100C6A00900089EBF0A3EAF0A3E9F0EF14603114E5
:100C7A0060582402707AC28C5389F043890143C9AF
:100C8A0090E4900044F0A3F0900089E0F9A3E0FA20
:100C9A00A3E090004EC9F0A3EAF0A3E9F0D2A9229A
:100CAA00C28E53890F43891043C9A0E4900046F0CD
:100CBA00A3F0900089E0F9A3E0FAA3E0900051C9FB
:100CCA00F0A3EAF0A3E9F0D2AB22E4F5C853C9F0E5
:100CDA0043C9C0900048F0A3F0900089E0F9A3E06E
:100CEA00FAA3E0900054C9F0A3EAF0A3E9F0D2AD68
:010CFA0022D7
:10117B00EDF4FDECF4FCED2401FDE43CFCEF14601C
:10118B001A14602A2402703990004AECF0A3EDF097
:10119B00F58AECF58CE4900044802390004CECF045
:1011AB00A3EDF0F58BECF58DE490004680108CCB25
:1011BB008DCAAE04AF058ECD8FCCE4900048F0A362
:0111CB00F033
:0111CC002200
:1013E700EF1460111460182402701DED6003D380A0
:1013F70001C392A922ED6003D38001C392AB22ED12
:091407006003D38001C392AD2201
:10152B00EF14600A14600A24027008D28C22D28E47
:04153B0022D2CA22CC
:10153F00EF14600A14600A24027008C28C22C28E53
:04154F0022C2CA22C8
:1011CD00EF14601414602A24027035AF8CEFFCAF5D
:1011DD008AEFFD90004A800BAF8DEFFCAF8BEFFDDA
:1011ED0090004CE0FEA3E0FFC3ED9FFDEC9EFC8064
:1011FD0013ACCDADCCC3ED95CAFDEC95CBFC800405
:08120D00E4FEFF22AF05AE0470
:0112150022B6
:10121600EDF4FDECF4FCED2401FDE43CFCEF146080
:10122600161460222402702F8D8AECF58CC28DD2A2
:101236008C308DFDC28C228D8BECF58DC28FD28EBB
:10124600308FFDC28E22AE04AF058ECD8FCCC2CFBD
:07125600D2CA30CFFDC2CA6D
:01125D00226E
:10138B00AE07EE25E02444F582E43400F583E4F067
:10139B00A3F012152BEE25E02444F582E43400F57E
:1013AB0083E0FAA3E0C39DEA9C40EAAF0602153F37
:03002300020F5772
:100F5700C0E0C0F0C083C082C0D075D000C000C060
:100F670001C002C003C004C005C006C0073098090D
:100F7700C298AD997F0012093730991AC299E4FFD8
:100F8700121565EF4E60097F0012087E8F99800663
:100F97009000AF7401F0D007D006D005D004D0037D
:100FA700D002D001D000D0D0D082D083D0F0D0E012
:010FB7003207
:03005300020FB8E1
:100FB800C0E0C0F0C083C082C0D075D000C000C0FF
:100FC80001C002C003C004C005C006C00730C00984
:100FD800C2C0ADC17F0112093730C11AC2C17F0139
:100FE800121565EF4E60097F0112087E8FC18006D9
:100FF8009000B07401F0D007D006D005D004D0031B
:10100800D002D001D000D0D0D082D083D0F0D0E0B0
:0110180032A5
:100BD30090008AE0F8A3E0F9A3E0FAA3E0FBE84978
:100BE3004A4B7005C29CC2AC22EF24FE603B0470EA
:100BF300759000AF7401F043878053890F438920B8
:100C0300C2CCC2CD43C9A0D28E90008AE0F8A3E043
:100C1300F9A3E0FAA3E0FB7FB07E717D0B7C0012A9
:100C23000138EFF404F58D802F9000AF7401F07557
:100C3300C83443C9C090008AE0F8A3E0F9A3E0FAFE
:100C4300A3E0FB7FB07E717D0B7C00120138C3E40F
:100C53009FFFE49EF5CB8FCA759850D2AC53C6EF75
:070C630090008EE042C62262
:10135300EC4D4E4F7005C2C4C2EC229000B0740134
:10136300F075C030AB07AA06A905A8047FB07E714B
:101373007D0B7C00120138EFF404F5C2D2EC53C6A6
:08138300DF9000ACE042C6223D
:03001E0002155375
:030026000212A61D
:0513BB009000B1EFF00D
:1013C0009000B1E0FF1214E2EF70F59000B1E0FF81
:1013D0006004C2EC8002C2AC120E119000B1E06059
:0613E00003D2EC22D2ACA6
:0113E60022E4
:0E0A9600900062EFF0A3EBF0A3EAF0A3E9F00A
:100AA400A3E0FFA3E0A3CFF0A3EFF0E4A3F0A3F04F
:100AB400900068E07002A3E0607B900062E0FF12A7
:100AC400155390006AEEF0A3EFF0900068E0FCA3E9
:100AD400E0FDC39FEC9E5006A3ECF0A3EDF0900064
:100AE40062E0FF6004C2EC8002C2AC900063E0FBF1
:100AF400A3E0FAA3E0F990006AE0FDA3E09000947B
:100B0400CDF0A3EDF0120323900062E06004D2EC78
:100B14008002D2AC90006AE0FEA3E0FFC3900069BB
:100B2400E09FF0900068E09EF0900064EE8FF01279
:050B340000D0020AB42C
:010B39002299
:100B3A0090006CEFF0A3EDF0A3EBF0A3EAF0A3E9C9
:010B4A00F0BA
:100B4B00A3E0FFA3E0A3CFF0A3EFF0900073E0705E
:100B5B0002A3E0605D90006CE0FF1214E2EF70EB1B
:100B6B0090006CE0FF6004C2EC8002C2AC120E116C
:100B7B00900075EFF090006CE06004D2EC8002D234
:100B8B00AC90006DE0FF900075E0FE6F602490006C
:100B9B0074E024FFF0900073E034FFF090006EE0FF
:100BAB00FBA3E475F0011200E6A9F0FAEE12009C2B
:100BBB008099900073E0FEA3E0FFC3900072E09F6A
:070BCB00FF900071E09EFEA7
:010BD2002200
:0E09EA00900080EFF0A3EBF0A3EAF0A3E9F099
:1009F800E4900086F0A3F0900085E024FFF09000DA
:100A080084E034FFF0900084E0FEA3E0FFC3900090
:100A180087E09F900086E09E5059900080E0FF128A
:100A280014E2EF70F5900080E0FF6004C2EC8002F1
:100A3800C2AC120E11900088EFF0900080E06004C4
:100A4800D2EC8002D2AC900088E0FF900081E0FBFD
:100A5800A3E0FAA3E0F9900086E475F0011200E63D
:100A680085F082F583EF1200AEEF640D6005EF6448
:100A78000A7092900081E0FBA3E0FAA3E0F99000ED
:0E0A880086E0FEA3E0FFF5828E83E40200AE5E
:03004E000214C8D1
:10125E00900089EFF0E0FF24AFF582E43400F583CF
:10126E00E06019EF60048DC180028D99900089E0D5
:10127E0024AFF582E43400F583E4F022900089E097
:10128E00FF6004C2EC8002C2AC120D87900089E0B0
:08129E006003D2EC22D2AC2265
:0E07C200900089EFF0A3EBF0A3EAF0A3E9F0BA
:1007D000E4A3F0A3F090008AE0FBA3E0FAA3E0F921
:1007E0001200567003020875900089E0FF24AFF5EF
:1007F00082E43400F583E0603BEF90008A6012A34E
:10080000E475F0011200E6A9F0FA120056F5C18075
:1008100012E0FBA3E475F0011200E6A9F0FA120061
:1008200056F599900089E024AFF582E43400F58311
:10083000E4F08030900089E0FF6004C2EC8002C2E6
:10084000AC90008AE0FBA3E475F0011200E6A9F089
:10085000FA120056FD120D87900089E06004D2EC78
:100860008002D2AC90008EE004F0700690008DE023
:0D08700004F00207D590008DE0FEA3E0FF2C
:01087D002258
:0E022500900076EFF0A3EBF0A3EAF0A3E9F06F
:10023300A3E0FFA3E0A3CFF0A3EFF0E4A3F0A3F0C8
:10024300900076E0FF24AFF582E43400F583E060AC
:1002530049EF9000776014E0FBA3E475F00112000E
:10026300E6A9F0FA120056F5C18012E0FBA3E4758B
:10027300F0011200E6A9F0FA120056F59990007603
:10028300E024AFF582E43400F583E4F090007DE0F0
:1002930024FFF090007CE034FFF090007CE07002DB
:1002A300A3E0607B900076E0FF1214C890007EEE1E
:1002B300F0A3EFF090007CE0FCA3E0FDC39FEC9E75
:1002C3005006A3ECF0A3EDF0900076E0FF6004C2CB
:1002D300EC8002C2AC900077E0FBA3E0FAA3E0F964
:1002E30090007EE0FDA3E09000A6CDF0A3EDF01218
:1002F3000608900076E06004D2EC8002D2AC900055
:100303007EE0FEA3E0FFC390007DE09FF090007CC1
:0F031300E09EF0900078EE8FF01200D002029D75
:0103220022B8
:1010EA0046001001001C0100244400040000000016
:1010FA004400000000000044003C000000004600DC
:10110A001601002C01003444000C000000004400C9
:0C111A000800000000440040000000003D
:10155300EF25E02404F582E43400F583E0FEA3E004
:02156300FF2265
:1014AE00EF25E02404F582E43400F583E0FEA3E0AA
:0A14BE00FFC374089FFFE49EFE22A6
:1014E200EF25E02404F582E43400F583E0FEA3E076
:0914F2004E70037F01227F0022ED
:10145700EF25E02404F582E43400F583E0FEA3E001
:0E146700C39408EE940040037F01227F002210
:1009370090FFFF120201EDF090FFFF120201EFF0AE
:10094700850883850982E0FF121457EF60057F0051
:100957000209E4850883850982A3E0FF850883856A
:100967000982E0FE75F003A42410F582E43400F553
:1009770083E0FBA3E0FAA3E0F9EE25E0243CF5824F
:10098700E43400F583E0FCA3E0F5828C83EF1200EA
:10099700AEEE25E0243CF582E43400F583E475F0FF
:1009A700011200D0EE25E0243CF582E43400F58303
:1009B700C083C082A3E05407FFD082D083E4F0A3B2
:1009C700EFF0850883850982E025E02404F582E4B9
:1009D7003400F583E475F0011200D07F0190000226
:0309E70002020108
:020E1100AD072B
:100E13001214E2EF60037F0022ED75F003A42410A7
:100E2300F582E43400F583E0FBA3E0FAA3E0F9EDF7
:100E330025E02400F582E43400F583E0FEA3E0F529
:100E4300828E8312006FFFED25E02400F582E434E7
:100E530000F583E475F0011200D0ED25E02400F5E0
:100E630082E43400F583C083C082A3E05407FBD03F
:100E730082D083E4F0A3EBF0ED25E02404F582E4D3
:0B0E83003400F58374FFF5F01200D07E
:010E8E002241
:1012A600AD071214E2EF60037F0022ED75F003A490
:1012B6002410F582E43400F583E0FBA3E0FAA3E012
:1012C600F9ED25E02400F582E43400F583E0FEA381
:0A12D600E0F5828E8312006FFF2204
:10032300900091EBF0A3EAF0A3E9F0900090EFF0D6
:1003330025E02404F582E43400F583E0FEA3E0FF26
:10034300900094E0FCA3E0FDD39FEC9E40037F006C
:1003530022900090E025E02404F582E43400F58344
:10036300C083C082C3A3E09DFF0582D582021583AB
:100373001582E09CD082D083F0A3EFF0900094E04C
:100383007002A3E0700302041D900090E0FF75F07B
:1003930003A42410F582E43400F583E0FBA3E0FA20
:1003A300A3E0F9EF25E02400F582E43400F583E0CF
:1003B300FEA3E0F5828E8312006FFF900091E0FBB5
:1003C300A3E0FAA3E0F9EF12009C900090E0FF2570
:1003D300E02400F582E43400F583E475F0011200B3
:1003E300D0EF25E02400F582E43400F583C083C018
:1003F30082A3E05407FFD082D083E4F0A3EFF09010
:100403000092E475F0011200D0900095E024FFF013
:0D041300900094E034FFF002037F7F01228F
:10051D00900097EBF0A3EAF0A3E9F0900096EFF0CE
:10052D0025E02404F582E43400F583E0FEA3E0FF2A
:10053D00C374089FFFE49EFE90009AE0FCA3E0FDCB
:10054D00D39FEC9E40037F0022900096E025E0248F
:10055D0004F582E43400F583EC8DF01200D09000A8
:10056D009AE07002A3E07003020605900097E0FB8D
:10057D00A3E0FAA3E0F9120056FF900096E0FE7595
:10058D00F003A42410F582E43400F583E0FBA3E02E
:10059D00FAA3E0F9EE25E0243CF582E43400F5837E
:1005AD00E0FCA3E0F5828C83EF1200AEEE25E02493
:1005BD003CF582E43400F583E475F0011200D0EED1
:1005CD0025E0243CF582E43400F583C083C082A38A
:1005DD00E05407FFD082D083E4F0A3EFF0900098B1
:1005ED00E475F0011200D090009BE024FFF0900024
:0B05FD009AE034FFF002056B7F012242
:10156500EF25E0240CF582E43400F583E0FEA3E0EA
:02157500FF2253
:1014C800EF25E0240CF582E43400F583E0FEA3E088
:0A14D800FFC374089FFFE49EFE228C
:1014FB00EF25E0240CF582E43400F583E0FEA3E055
:09150B004E70037F01227F0022D3
:10147500EF25E0240CF582E43400F583E0FEA3E0DB
:0E148500C39408EE940040037F01227F0022F2
:100D870090008FEFF0121475EF60037F0022900040
:100D97008FE0FE75F003A42416F582E43400F58392
:100DA700E0FBA3E0FAA3E0F9EE25E02440F582E4B6
:100DB7003400F583E0FCA3E0F5828C83ED1200AEEE
:100DC700EE25E02440F582E43400F583E475F00174
:100DD7001200D0EE25E02440F582E43400F583C00C
:100DE70083C082A3E05407FFD082D083E4F0A3EF4F
:100DF700F090008FE025E0240CF582E43400F583C1
:0A0E0700E475F0011200D07F012213
:0E087E0090FFFF120201EFF090FFFF12020147
:10088C00850883850982A3E0FF1214FBEF60057FC6
:10089C0000020931850883850982A3E0FF75F00306
:1008AC00A42416F582E43400F583E0FBA3E0FAA35C
:1008BC00E0F9EF25E02408F582E43400F583E0FE4E
:1008CC00A3E0F5828E8312006F850883850982F080
:1008DC00A3E0FF25E02408F582E43400F583E475F9
:1008EC00F0011200D0EF25E02408F582E43400F585
:1008FC0083C083C082A3E05407FFD082D083E4F08E
:10090C00A3EFF0850883850982A3E025E0240CF58C
:10091C0082E43400F58374FFF5F01200D08508836F
:05092C00850982E0FFD7
:0609310090000202020129
:1012E000AD071214FBEF60037F0022ED75F003A43D
:1012F0002416F582E43400F583E0FBA3E0FAA3E0D2
:10130000F9ED25E02408F582E43400F583E0FEA33E
:0A131000E0F5828E8312006FFF22C9
:1004200090009DEBF0A3EAF0A3E9F090009CEFF0C0
:1004300025E0240CF582E43400F583E0FEA3E0FF20
:100440009000A0E0FCA3E0FDD39FEC9E40037F0062
:100450002290009CE025E0240CF582E43400F58332
:10046000C083C082C3A3E09DFF0582D582021583AD
:100470001582E09CD082D083F0A3EFF09000A0E042
:100480007002A3E0700302051A90009CE0FF75F073
:1004900003A42416F582E43400F583E0FBA3E0FA1C
:1004A000A3E0F9EF25E02408F582E43400F583E0C9
:1004B000FEA3E0F5828E8312006FFF90009DE0FBAB
:1004C000A3E0FAA3E0F9EF12009C90009CE0FF2566
:1004D000E02408F582E43400F583E475F0011200AD
:1004E000D0EF25E02408F582E43400F583C083C012
:1004F00082A3E05407FFD082D083E4F0A3EFF09012
:10050000009EE475F0011200D09000A1E024FFF0FD
:0D0510009000A0E034FFF002047C7F012287
:100608009000A3EBF0A3EAF0A3E9F09000A2EFF0CA
:1006180025E0240CF582E43400F583E0FEA3E0FF36
:10062800C374089FFFE49EFE9000A6E0FCA3E0FDD3
:10063800D39FEC9E40037F00229000A2E025E02497
:100648000CF582E43400F583EC8DF01200D09000B4
:10065800A6E07002A3E070030206F09000A3E0FB9E
:10066800A3E0FAA3E0F9120056FF9000A2E0FE759D
:10067800F003A42416F582E43400F583E0FBA3E03C
:10068800FAA3E0F9EE25E02440F582E43400F5838E
:10069800E0FCA3E0F5828C83EF1200AEEE25E024A7
:1006A80040F582E43400F583E475F0011200D0EEE1
:1006B80025E02440F582E43400F583C083C082A39A
:1006C800E05407FFD082D083E4F0A3EFF09000A4B9
:1006D800E475F0011200D09000A7E024FFF090002C
:0B06E800A6E034FFF00206567F01225E
:06000300426F6F62610014
:1006F3001215887B127D017F011211277B207D015A
:10070300E4FF1211277B027D037F011211277B0572
:100713007D03E4FF12112790008A1201CA0001E849
:1007230048E490008EF07F01120BD37F0112000E7C
:1007330090005D7402F0A304F090006114F01215B0
:10074300B27B007A007900E4FF120C6A7DE07C2E14
:10075300E4FF12117BD2AFC2AE7D027F01121410EF
:100763007DFA7C00E4FF12138B7D027F0112149348
:100773007DFA7C00E4FF12138B7BFF7A007903E49C
:10078300FF1207C27F0212002E7D327C00E4FF12AB
:10079300138B900057E0FDE4FF12125E900058E0C7
:1007A300FDE4FF12125E7D027F01121435EF700427
:0F07B3007B0180027B007D027F0112131A80C53B
:1015880075A15575A1AA53B9F843B90475A1FF22ED
:0E159800EF4E600905A1EF1F70F61E80F322D2
:10151400AD07AC06ED4C600E7FE87E03121598ED26
:071524001D70F11C80EE2296
:03004B0002101987
:10101900C0E0C083C082C0D075D000C00790005B1B
:10102900E02457F582E43400F583E59FF090005CF5
:10103900E014F0602A90005BE004F0900061E0FFAA
:1010490090005BE0B50702E4F0C281C28090005BCA
:10105900E0245DF582E43400F583E04280D284C265
:0C10690085D007D0D0D082D083D0E032F8
:0C000E00C2EB439A08539AFEEF429A227C
:0A15B200E490005BF0C285D2EB224A
:10002E00C281C28090005BE0245DF582E43400F56D
:0C003E0083E0428090005CEFF0D284224E
:0C15A600C281C280EF4280C2EBD28422DE
:0615BC002084FDAF9F2218
:10157700C281C280EF4280C2EBD2842084FDAF9F3C
:011587002241
:100D07000206F3E493A3F8E493A34003F68001F209
:100D170008DFF48029E493A3F85407240CC8C333ED
:100D2700C4540F4420C8834004F456800146F6DFBC
:100D3700E4800B01020408102040809010D0E47E6C
:100D4700019360BCA3FF543F30E509541FFEE493B1
:100D5700A360010ECF54C025E060A840B8E493A378
:100D6700FAE493A3F8E493A3C8C582C8CAC583CAA3
:100D7700F0A3C8C582C8CAC583CADFE9DEE780BE5B
:0111260000C8
:10005600BB010689828A83E0225002E722BBFE02A8
:09006600E32289828A83E49322DB
:10006F00BB010CE58229F582E5833AF583E0225046
:10007F0006E92582F8E622BBFE06E92582F8E22290
:0D008F00E58229F582E5833AF583E49322AA
:10009C00BB010689828A83F0225002F722BBFE0143
:0200AC00F3223D
:1000AE00F8BB010DE58229F582E5833AF583E8F088
:1000BE00225006E92582C8F622BBFE05E92582C834
:0200CE00F2221C
:1000D000C5F0F8A3E028F0C5F0F8E58215827002BB
:0600E0001583E038F02258
:1000E600A3F8E0C5F025F0F0E582158270021583CD
:0600F600E0C838F0E8222A
:1000FC0075F008758200EF2FFFEE33FECD33CDCCBB
:10010C0033CCC58233C5829BED9AEC99E58298403D
:10011C000CF582EE9BFEED9AFDEC99FC0FD5F0D61A
:10012C00E4CEFBE4CDFAE4CCF9A88222B800C1B944
:10013C000059BA002DEC8BF084CFCECDFCE5F0CB82
:10014C00F97818EF2FFFEE33FEED33FDEC33FCEBBB
:10015C0033FB10D703994004EB99FB0FD8E5E4F976
:10016C00FA227818EF2FFFEE33FEED33FDEC33FC63
:10017C00C933C910D7059BE99A4007EC9BFCE99A57
:10018C00F90FD8E0E4C9FAE4CCFB2275F010EF2F9C
:10019C00FFEE33FEED33FDCC33CCC833C810D7079C
:1001AC009BEC9AE899400AED9BFDEC9AFCE899F8D7
:0E01BC000FD5F0DAE4CDFBE4CCFAE4C8F9226A
:1001CA00A8828583F0D083D0821201E11201E11264
:1001DA0001E11201E1E473E493A3C583C5F0C58389
:1001EA00C8C582C8F0A3C583C5F0C583C8C582C87F
:0101FA0022E2
:0601FB008A838982E4738F
:10020100E5092582F582E5083583F583B50804857E
:1002110082092210AF06858209F50822858209F537
:0402210008D2AF222E
:00000001FF
